{
	"FundMe.sol": {
		"FundMe": {
			"abi": [
				{
					"inputs": [],
					"stateMutability": "nonpayable",
					"type": "constructor"
				},
				{
					"inputs": [],
					"name": "notOwner",
					"type": "error"
				},
				{
					"stateMutability": "payable",
					"type": "fallback"
				},
				{
					"inputs": [],
					"name": "MINIMUN_USD",
					"outputs": [
						{
							"internalType": "uint256",
							"name": "",
							"type": "uint256"
						}
					],
					"stateMutability": "view",
					"type": "function"
				},
				{
					"inputs": [
						{
							"internalType": "address",
							"name": "funder",
							"type": "address"
						}
					],
					"name": "addressToAmountFunded",
					"outputs": [
						{
							"internalType": "uint256",
							"name": "amountFunded",
							"type": "uint256"
						}
					],
					"stateMutability": "view",
					"type": "function"
				},
				{
					"inputs": [],
					"name": "fund",
					"outputs": [],
					"stateMutability": "payable",
					"type": "function"
				},
				{
					"inputs": [
						{
							"internalType": "uint256",
							"name": "",
							"type": "uint256"
						}
					],
					"name": "funders",
					"outputs": [
						{
							"internalType": "address",
							"name": "",
							"type": "address"
						}
					],
					"stateMutability": "view",
					"type": "function"
				},
				{
					"inputs": [],
					"name": "i_owner",
					"outputs": [
						{
							"internalType": "address",
							"name": "",
							"type": "address"
						}
					],
					"stateMutability": "view",
					"type": "function"
				},
				{
					"inputs": [],
					"name": "withdraw",
					"outputs": [],
					"stateMutability": "nonpayable",
					"type": "function"
				},
				{
					"stateMutability": "payable",
					"type": "receive"
				}
			],
			"devdoc": {
				"kind": "dev",
				"methods": {},
				"version": 1
			},
			"evm": {
				"assembly": "    /* \"FundMe.sol\":254:2043  contract FundMe {... */\n  mstore(0x40, 0xa0)\n    /* \"FundMe.sol\":573:714  constructor () {... */\n  callvalue\n  dup1\n  iszero\n  tag_1\n  jumpi\n  0x00\n  dup1\n  revert\ntag_1:\n  pop\n    /* \"FundMe.sol\":632:674  0xfEefF7c3fB57d18C5C6Cdd71e45D2D0b4F9377bF */\n  0xfeeff7c3fb57d18c5c6cdd71e45d2d0b4f9377bf\n    /* \"FundMe.sol\":599:607  dataFeed */\n  0x00\n  dup1\n    /* \"FundMe.sol\":599:675  dataFeed = AggregatorV3Interface(0xfEefF7c3fB57d18C5C6Cdd71e45D2D0b4F9377bF) */\n  0x0100\n  exp\n  dup2\n  sload\n  dup2\n  0xffffffffffffffffffffffffffffffffffffffff\n  mul\n  not\n  and\n  swap1\n  dup4\n  0xffffffffffffffffffffffffffffffffffffffff\n  and\n  mul\n  or\n  swap1\n  sstore\n  pop\n    /* \"FundMe.sol\":696:706  msg.sender */\n  caller\n    /* \"FundMe.sol\":686:706  i_owner = msg.sender */\n  0xffffffffffffffffffffffffffffffffffffffff\n  and\n  0x80\n  dup2\n  0xffffffffffffffffffffffffffffffffffffffff\n  and\n  dup2\n  mstore\n  pop\n  pop\n    /* \"FundMe.sol\":254:2043  contract FundMe {... */\n  mload(0x80)\n  codecopy(0x00, dataOffset(sub_0), dataSize(sub_0))\n  0x00\n  assignImmutable(\"0x2cc0d3dcb20652cd8f106aee76b6a7391771a130885634c0eb2bbe3cde796691\")\n  return(0x00, dataSize(sub_0))\nstop\n\nsub_0: assembly {\n        /* \"FundMe.sol\":254:2043  contract FundMe {... */\n      mstore(0x40, 0x80)\n      jumpi(tag_1, lt(calldatasize, 0x04))\n      shr(0xe0, calldataload(0x00))\n      dup1\n      0x2100f479\n      eq\n      tag_3\n      jumpi\n      dup1\n      0x3ccfd60b\n      eq\n      tag_4\n      jumpi\n      dup1\n      0x3e47d6f3\n      eq\n      tag_5\n      jumpi\n      dup1\n      0xb60d4288\n      eq\n      tag_6\n      jumpi\n      dup1\n      0xdba6335f\n      eq\n      tag_7\n      jumpi\n      dup1\n      0xdc0d3dff\n      eq\n      tag_8\n      jumpi\n      jump(tag_2)\n    tag_1:\n      jumpi(tag_2, calldatasize)\n        /* \"FundMe.sol\":1961:1967  fund() */\n      tag_11\n        /* \"FundMe.sol\":1961:1965  fund */\n      tag_12\n        /* \"FundMe.sol\":1961:1967  fund() */\n      jump\t// in\n    tag_11:\n        /* \"FundMe.sol\":254:2043  contract FundMe {... */\n      stop\n    tag_2:\n        /* \"FundMe.sol\":2022:2028  fund() */\n      tag_15\n        /* \"FundMe.sol\":2022:2026  fund */\n      tag_12\n        /* \"FundMe.sol\":2022:2028  fund() */\n      jump\t// in\n    tag_15:\n        /* \"FundMe.sol\":254:2043  contract FundMe {... */\n      stop\n        /* \"FundMe.sol\":366:408  uint256 public constant MINIMUN_USD = 5e18 */\n    tag_3:\n      callvalue\n      dup1\n      iszero\n      tag_16\n      jumpi\n      0x00\n      dup1\n      revert\n    tag_16:\n      pop\n      tag_17\n      tag_18\n      jump\t// in\n    tag_17:\n      mload(0x40)\n      tag_19\n      swap2\n      swap1\n      tag_20\n      jump\t// in\n    tag_19:\n      mload(0x40)\n      dup1\n      swap2\n      sub\n      swap1\n      return\n        /* \"FundMe.sol\":972:1713  function withdraw() public onlyOwner {... */\n    tag_4:\n      callvalue\n      dup1\n      iszero\n      tag_21\n      jumpi\n      0x00\n      dup1\n      revert\n    tag_21:\n      pop\n      tag_22\n      tag_23\n      jump\t// in\n    tag_22:\n      stop\n        /* \"FundMe.sol\":449:523  mapping (address funder => uint amountFunded) public addressToAmountFunded */\n    tag_5:\n      callvalue\n      dup1\n      iszero\n      tag_24\n      jumpi\n      0x00\n      dup1\n      revert\n    tag_24:\n      pop\n      tag_25\n      0x04\n      dup1\n      calldatasize\n      sub\n      dup2\n      add\n      swap1\n      tag_26\n      swap2\n      swap1\n      tag_27\n      jump\t// in\n    tag_26:\n      tag_28\n      jump\t// in\n    tag_25:\n      mload(0x40)\n      tag_29\n      swap2\n      swap1\n      tag_20\n      jump\t// in\n    tag_29:\n      mload(0x40)\n      dup1\n      swap2\n      sub\n      swap1\n      return\n        /* \"FundMe.sol\":722:964  function fund() public payable {... */\n    tag_6:\n      tag_30\n      tag_12\n      jump\t// in\n    tag_30:\n      stop\n        /* \"FundMe.sol\":532:564  address public immutable i_owner */\n    tag_7:\n      callvalue\n      dup1\n      iszero\n      tag_31\n      jumpi\n      0x00\n      dup1\n      revert\n    tag_31:\n      pop\n      tag_32\n      tag_33\n      jump\t// in\n    tag_32:\n      mload(0x40)\n      tag_34\n      swap2\n      swap1\n      tag_35\n      jump\t// in\n    tag_34:\n      mload(0x40)\n      dup1\n      swap2\n      sub\n      swap1\n      return\n        /* \"FundMe.sol\":417:442  address [] public funders */\n    tag_8:\n      callvalue\n      dup1\n      iszero\n      tag_36\n      jumpi\n      0x00\n      dup1\n      revert\n    tag_36:\n      pop\n      tag_37\n      0x04\n      dup1\n      calldatasize\n      sub\n      dup2\n      add\n      swap1\n      tag_38\n      swap2\n      swap1\n      tag_39\n      jump\t// in\n    tag_38:\n      tag_40\n      jump\t// in\n    tag_37:\n      mload(0x40)\n      tag_41\n      swap2\n      swap1\n      tag_35\n      jump\t// in\n    tag_41:\n      mload(0x40)\n      dup1\n      swap2\n      sub\n      swap1\n      return\n        /* \"FundMe.sol\":722:964  function fund() public payable {... */\n    tag_12:\n        /* \"FundMe.sol\":404:408  5e18 */\n      0x4563918244f40000\n        /* \"FundMe.sol\":773:802  msg.value.getConversionRate() */\n      tag_43\n        /* \"FundMe.sol\":773:782  msg.value */\n      callvalue\n        /* \"FundMe.sol\":773:800  msg.value.getConversionRate */\n      tag_44\n        /* \"FundMe.sol\":773:802  msg.value.getConversionRate() */\n      jump\t// in\n    tag_43:\n        /* \"FundMe.sol\":773:817  msg.value.getConversionRate() >= MINIMUN_USD */\n      lt\n      iszero\n        /* \"FundMe.sol\":764:844  require( msg.value.getConversionRate() >= MINIMUN_USD, \"Didn't sent enough ETH\") */\n      tag_45\n      jumpi\n      mload(0x40)\n      0x08c379a000000000000000000000000000000000000000000000000000000000\n      dup2\n      mstore\n      0x04\n      add\n      tag_46\n      swap1\n      tag_47\n      jump\t// in\n    tag_46:\n      mload(0x40)\n      dup1\n      swap2\n      sub\n      swap1\n      revert\n    tag_45:\n        /* \"FundMe.sol\":855:862  funders */\n      0x01\n        /* \"FundMe.sol\":868:878  msg.sender */\n      caller\n        /* \"FundMe.sol\":855:879  funders.push(msg.sender) */\n      swap1\n      dup1\n      0x01\n      dup2\n      sload\n      add\n      dup1\n      dup3\n      sstore\n      dup1\n      swap2\n      pop\n      pop\n      0x01\n      swap1\n      sub\n      swap1\n      0x00\n      mstore\n      keccak256(0x00, 0x20)\n      add\n      0x00\n      swap1\n      swap2\n      swap1\n      swap2\n      swap1\n      swap2\n      0x0100\n      exp\n      dup2\n      sload\n      dup2\n      0xffffffffffffffffffffffffffffffffffffffff\n      mul\n      not\n      and\n      swap1\n      dup4\n      0xffffffffffffffffffffffffffffffffffffffff\n      and\n      mul\n      or\n      swap1\n      sstore\n      pop\n        /* \"FundMe.sol\":927:956  msg.value.getConversionRate() */\n      tag_49\n        /* \"FundMe.sol\":927:936  msg.value */\n      callvalue\n        /* \"FundMe.sol\":927:954  msg.value.getConversionRate */\n      tag_44\n        /* \"FundMe.sol\":927:956  msg.value.getConversionRate() */\n      jump\t// in\n    tag_49:\n        /* \"FundMe.sol\":890:911  addressToAmountFunded */\n      0x02\n        /* \"FundMe.sol\":890:923  addressToAmountFunded[msg.sender] */\n      0x00\n        /* \"FundMe.sol\":912:922  msg.sender */\n      caller\n        /* \"FundMe.sol\":890:923  addressToAmountFunded[msg.sender] */\n      0xffffffffffffffffffffffffffffffffffffffff\n      and\n      0xffffffffffffffffffffffffffffffffffffffff\n      and\n      dup2\n      mstore\n      0x20\n      add\n      swap1\n      dup2\n      mstore\n      0x20\n      add\n      0x00\n      keccak256\n      0x00\n        /* \"FundMe.sol\":890:956  addressToAmountFunded[msg.sender] += msg.value.getConversionRate() */\n      dup3\n      dup3\n      sload\n      tag_50\n      swap2\n      swap1\n      tag_51\n      jump\t// in\n    tag_50:\n      swap3\n      pop\n      pop\n      dup2\n      swap1\n      sstore\n      pop\n        /* \"FundMe.sol\":722:964  function fund() public payable {... */\n      jump\t// out\n        /* \"FundMe.sol\":366:408  uint256 public constant MINIMUN_USD = 5e18 */\n    tag_18:\n        /* \"FundMe.sol\":404:408  5e18 */\n      0x4563918244f40000\n        /* \"FundMe.sol\":366:408  uint256 public constant MINIMUN_USD = 5e18 */\n      dup2\n      jump\t// out\n        /* \"FundMe.sol\":972:1713  function withdraw() public onlyOwner {... */\n    tag_23:\n        /* \"FundMe.sol\":1843:1850  i_owner */\n      immutable(\"0x2cc0d3dcb20652cd8f106aee76b6a7391771a130885634c0eb2bbe3cde796691\")\n        /* \"FundMe.sol\":1829:1850  msg.sender == i_owner */\n      0xffffffffffffffffffffffffffffffffffffffff\n      and\n        /* \"FundMe.sol\":1829:1839  msg.sender */\n      caller\n        /* \"FundMe.sol\":1829:1850  msg.sender == i_owner */\n      0xffffffffffffffffffffffffffffffffffffffff\n      and\n      sub\n        /* \"FundMe.sol\":1825:1896  if (msg.sender == i_owner) {... */\n      tag_53\n      jumpi\n        /* \"FundMe.sol\":1874:1884  notOwner() */\n      mload(0x40)\n      0x251c9d6300000000000000000000000000000000000000000000000000000000\n      dup2\n      mstore\n      0x04\n      add\n      mload(0x40)\n      dup1\n      swap2\n      sub\n      swap1\n      revert\n        /* \"FundMe.sol\":1825:1896  if (msg.sender == i_owner) {... */\n    tag_53:\n        /* \"FundMe.sol\":1087:1103  uint funderIndex */\n      0x00\n        /* \"FundMe.sol\":1083:1264  for(uint funderIndex=0; funderIndex < funders.length; funderIndex++) {... */\n    tag_55:\n        /* \"FundMe.sol\":1121:1128  funders */\n      0x01\n        /* \"FundMe.sol\":1121:1135  funders.length */\n      dup1\n      sload\n      swap1\n      pop\n        /* \"FundMe.sol\":1107:1118  funderIndex */\n      dup2\n        /* \"FundMe.sol\":1107:1135  funderIndex < funders.length */\n      lt\n        /* \"FundMe.sol\":1083:1264  for(uint funderIndex=0; funderIndex < funders.length; funderIndex++) {... */\n      iszero\n      tag_56\n      jumpi\n        /* \"FundMe.sol\":1167:1181  address funder */\n      0x00\n        /* \"FundMe.sol\":1184:1191  funders */\n      0x01\n        /* \"FundMe.sol\":1192:1203  funderIndex */\n      dup3\n        /* \"FundMe.sol\":1184:1204  funders[funderIndex] */\n      dup2\n      sload\n      dup2\n      lt\n      tag_58\n      jumpi\n      tag_59\n      tag_60\n      jump\t// in\n    tag_59:\n    tag_58:\n      swap1\n      0x00\n      mstore\n      keccak256(0x00, 0x20)\n      add\n      0x00\n      swap1\n      sload\n      swap1\n      0x0100\n      exp\n      swap1\n      div\n      0xffffffffffffffffffffffffffffffffffffffff\n      and\n        /* \"FundMe.sol\":1167:1204  address funder = funders[funderIndex] */\n      swap1\n      pop\n        /* \"FundMe.sol\":1251:1252  0 */\n      0x00\n        /* \"FundMe.sol\":1219:1240  addressToAmountFunded */\n      0x02\n        /* \"FundMe.sol\":1219:1248  addressToAmountFunded[funder] */\n      0x00\n        /* \"FundMe.sol\":1241:1247  funder */\n      dup4\n        /* \"FundMe.sol\":1219:1248  addressToAmountFunded[funder] */\n      0xffffffffffffffffffffffffffffffffffffffff\n      and\n      0xffffffffffffffffffffffffffffffffffffffff\n      and\n      dup2\n      mstore\n      0x20\n      add\n      swap1\n      dup2\n      mstore\n      0x20\n      add\n      0x00\n      keccak256\n        /* \"FundMe.sol\":1219:1252  addressToAmountFunded[funder] = 0 */\n      dup2\n      swap1\n      sstore\n      pop\n        /* \"FundMe.sol\":1152:1264  {... */\n      pop\n        /* \"FundMe.sol\":1137:1150  funderIndex++ */\n      dup1\n      dup1\n      tag_62\n      swap1\n      tag_63\n      jump\t// in\n    tag_62:\n      swap2\n      pop\n      pop\n        /* \"FundMe.sol\":1083:1264  for(uint funderIndex=0; funderIndex < funders.length; funderIndex++) {... */\n      jump(tag_55)\n    tag_56:\n      pop\n        /* \"FundMe.sol\":1298:1299  0 */\n      0x00\n        /* \"FundMe.sol\":1284:1300  new address[](0) */\n      0xffffffffffffffff\n      dup2\n      gt\n      iszero\n      tag_64\n      jumpi\n      tag_65\n      tag_66\n      jump\t// in\n    tag_65:\n    tag_64:\n      mload(0x40)\n      swap1\n      dup1\n      dup3\n      mstore\n      dup1\n      0x20\n      mul\n      0x20\n      add\n      dup3\n      add\n      0x40\n      mstore\n      dup1\n      iszero\n      tag_67\n      jumpi\n      dup2\n      0x20\n      add\n      0x20\n      dup3\n      mul\n      dup1\n      calldatasize\n      dup4\n      calldatacopy\n      dup1\n      dup3\n      add\n      swap2\n      pop\n      pop\n      swap1\n      pop\n    tag_67:\n      pop\n        /* \"FundMe.sol\":1274:1281  funders */\n      0x01\n        /* \"FundMe.sol\":1274:1300  funders = new address[](0) */\n      swap1\n      dup1\n      mload\n      swap1\n      0x20\n      add\n      swap1\n      tag_68\n      swap3\n      swap2\n      swap1\n      tag_69\n      jump\t// in\n    tag_68:\n      pop\n        /* \"FundMe.sol\":1576:1592  bool callSuccess */\n      0x00\n        /* \"FundMe.sol\":1607:1617  msg.sender */\n      caller\n        /* \"FundMe.sol\":1598:1623  payable (msg.sender).call */\n      0xffffffffffffffffffffffffffffffffffffffff\n      and\n        /* \"FundMe.sol\":1632:1653  address(this).balance */\n      selfbalance\n        /* \"FundMe.sol\":1598:1659  payable (msg.sender).call{ value: address(this).balance }(\"\") */\n      mload(0x40)\n      tag_70\n      swap1\n      tag_71\n      jump\t// in\n    tag_70:\n      0x00\n      mload(0x40)\n      dup1\n      dup4\n      sub\n      dup2\n      dup6\n      dup8\n      gas\n      call\n      swap3\n      pop\n      pop\n      pop\n      returndatasize\n      dup1\n      0x00\n      dup2\n      eq\n      tag_74\n      jumpi\n      mload(0x40)\n      swap2\n      pop\n      and(add(returndatasize, 0x3f), not(0x1f))\n      dup3\n      add\n      0x40\n      mstore\n      returndatasize\n      dup3\n      mstore\n      returndatasize\n      0x00\n      0x20\n      dup5\n      add\n      returndatacopy\n      jump(tag_73)\n    tag_74:\n      0x60\n      swap2\n      pop\n    tag_73:\n      pop\n        /* \"FundMe.sol\":1575:1659  (bool callSuccess, ) = payable (msg.sender).call{ value: address(this).balance }(\"\") */\n      pop\n      swap1\n      pop\n        /* \"FundMe.sol\":1678:1689  callSuccess */\n      dup1\n        /* \"FundMe.sol\":1670:1705  require(callSuccess, \"Call Failed\") */\n      tag_75\n      jumpi\n      mload(0x40)\n      0x08c379a000000000000000000000000000000000000000000000000000000000\n      dup2\n      mstore\n      0x04\n      add\n      tag_76\n      swap1\n      tag_77\n      jump\t// in\n    tag_76:\n      mload(0x40)\n      dup1\n      swap2\n      sub\n      swap1\n      revert\n    tag_75:\n        /* \"FundMe.sol\":1009:1713  {... */\n      pop\n        /* \"FundMe.sol\":972:1713  function withdraw() public onlyOwner {... */\n      jump\t// out\n        /* \"FundMe.sol\":449:523  mapping (address funder => uint amountFunded) public addressToAmountFunded */\n    tag_28:\n      mstore(0x20, 0x02)\n      dup1\n      0x00\n      mstore\n      keccak256(0x00, 0x40)\n      0x00\n      swap2\n      pop\n      swap1\n      pop\n      sload\n      dup2\n      jump\t// out\n        /* \"FundMe.sol\":532:564  address public immutable i_owner */\n    tag_33:\n      immutable(\"0x2cc0d3dcb20652cd8f106aee76b6a7391771a130885634c0eb2bbe3cde796691\")\n      dup2\n      jump\t// out\n        /* \"FundMe.sol\":417:442  address [] public funders */\n    tag_40:\n      0x01\n      dup2\n      dup2\n      sload\n      dup2\n      lt\n      tag_78\n      jumpi\n      0x00\n      dup1\n      revert\n    tag_78:\n      swap1\n      0x00\n      mstore\n      keccak256(0x00, 0x20)\n      add\n      0x00\n      swap2\n      pop\n      sload\n      swap1\n      0x0100\n      exp\n      swap1\n      div\n      0xffffffffffffffffffffffffffffffffffffffff\n      and\n      dup2\n      jump\t// out\n        /* \"PriceConvertor.sol\":642:865  function getConversionRate(uint256 ethAmount) internal  view returns(uint256) {... */\n    tag_44:\n        /* \"PriceConvertor.sol\":711:718  uint256 */\n      0x00\n        /* \"PriceConvertor.sol\":731:747  uint256 ethPrice */\n      dup1\n        /* \"PriceConvertor.sol\":750:760  getPrice() */\n      tag_81\n        /* \"PriceConvertor.sol\":750:758  getPrice */\n      tag_82\n        /* \"PriceConvertor.sol\":750:760  getPrice() */\n      jump\t// in\n    tag_81:\n        /* \"PriceConvertor.sol\":731:760  uint256 ethPrice = getPrice() */\n      swap1\n      pop\n        /* \"PriceConvertor.sol\":771:793  uint256 ethAmountInUSD */\n      0x00\n        /* \"PriceConvertor.sol\":821:825  1e18 */\n      0x0de0b6b3a7640000\n        /* \"PriceConvertor.sol\":808:817  ethAmount */\n      dup5\n        /* \"PriceConvertor.sol\":797:805  ethPrice */\n      dup4\n        /* \"PriceConvertor.sol\":797:817  ethPrice * ethAmount */\n      tag_83\n      swap2\n      swap1\n      tag_84\n      jump\t// in\n    tag_83:\n        /* \"PriceConvertor.sol\":796:825  (ethPrice * ethAmount) / 1e18 */\n      tag_85\n      swap2\n      swap1\n      tag_86\n      jump\t// in\n    tag_85:\n        /* \"PriceConvertor.sol\":771:825  uint256 ethAmountInUSD = (ethPrice * ethAmount) / 1e18 */\n      swap1\n      pop\n        /* \"PriceConvertor.sol\":843:857  ethAmountInUSD */\n      dup1\n        /* \"PriceConvertor.sol\":836:857  return ethAmountInUSD */\n      swap3\n      pop\n      pop\n      pop\n        /* \"PriceConvertor.sol\":642:865  function getConversionRate(uint256 ethAmount) internal  view returns(uint256) {... */\n      swap2\n      swap1\n      pop\n      jump\t// out\n        /* \"PriceConvertor.sol\":207:634  function getPrice() internal view returns (uint256) {... */\n    tag_82:\n        /* \"PriceConvertor.sol\":250:257  uint256 */\n      0x00\n        /* \"PriceConvertor.sol\":270:300  AggregatorV3Interface dataFeed */\n      dup1\n        /* \"PriceConvertor.sol\":325:367  0x694AA1769357215DE4FAC081bf1f309aDC325306 */\n      0x694aa1769357215de4fac081bf1f309adc325306\n        /* \"PriceConvertor.sol\":270:368  AggregatorV3Interface dataFeed = AggregatorV3Interface(0x694AA1769357215DE4FAC081bf1f309aDC325306) */\n      swap1\n      pop\n        /* \"PriceConvertor.sol\":429:439  int answer */\n      0x00\n        /* \"PriceConvertor.sol\":560:568  dataFeed */\n      dup2\n        /* \"PriceConvertor.sol\":560:584  dataFeed.latestRoundData */\n      0xffffffffffffffffffffffffffffffffffffffff\n      and\n      0xfeaf968c\n        /* \"PriceConvertor.sol\":560:586  dataFeed.latestRoundData() */\n      mload(0x40)\n      dup2\n      0xffffffff\n      and\n      0xe0\n      shl\n      dup2\n      mstore\n      0x04\n      add\n      0xa0\n      mload(0x40)\n      dup1\n      dup4\n      sub\n      dup2\n      dup7\n      gas\n      staticcall\n      iszero\n      dup1\n      iszero\n      tag_89\n      jumpi\n      returndatasize\n      0x00\n      dup1\n      returndatacopy\n      revert(0x00, returndatasize)\n    tag_89:\n      pop\n      pop\n      pop\n      pop\n      mload(0x40)\n      returndatasize\n      not(0x1f)\n      0x1f\n      dup3\n      add\n      and\n      dup3\n      add\n      dup1\n      0x40\n      mstore\n      pop\n      dup2\n      add\n      swap1\n      tag_90\n      swap2\n      swap1\n      tag_91\n      jump\t// in\n    tag_90:\n        /* \"PriceConvertor.sol\":379:586  (... */\n      pop\n      pop\n      pop\n      swap2\n      pop\n      pop\n        /* \"PriceConvertor.sol\":621:625  1e10 */\n      0x02540be400\n        /* \"PriceConvertor.sol\":612:618  answer */\n      dup2\n        /* \"PriceConvertor.sol\":612:625  answer * 1e10 */\n      tag_92\n      swap2\n      swap1\n      tag_93\n      jump\t// in\n    tag_92:\n        /* \"PriceConvertor.sol\":597:626  return uint256(answer * 1e10) */\n      swap3\n      pop\n      pop\n      pop\n        /* \"PriceConvertor.sol\":207:634  function getPrice() internal view returns (uint256) {... */\n      swap1\n      jump\t// out\n    tag_69:\n      dup3\n      dup1\n      sload\n      dup3\n      dup3\n      sstore\n      swap1\n      0x00\n      mstore\n      keccak256(0x00, 0x20)\n      swap1\n      dup2\n      add\n      swap3\n      dup3\n      iszero\n      tag_94\n      jumpi\n      swap2\n      0x20\n      mul\n      dup3\n      add\n    tag_95:\n      dup3\n      dup2\n      gt\n      iszero\n      tag_96\n      jumpi\n      dup3\n      mload\n      dup3\n      exp(0x0100, 0x00)\n      dup2\n      sload\n      dup2\n      0xffffffffffffffffffffffffffffffffffffffff\n      mul\n      not\n      and\n      swap1\n      dup4\n      0xffffffffffffffffffffffffffffffffffffffff\n      and\n      mul\n      or\n      swap1\n      sstore\n      pop\n      swap2\n      0x20\n      add\n      swap2\n      swap1\n      0x01\n      add\n      swap1\n      jump(tag_95)\n    tag_96:\n    tag_94:\n      pop\n      swap1\n      pop\n      tag_97\n      swap2\n      swap1\n      tag_98\n      jump\t// in\n    tag_97:\n      pop\n      swap1\n      jump\t// out\n    tag_98:\n    tag_99:\n      dup1\n      dup3\n      gt\n      iszero\n      tag_100\n      jumpi\n      0x00\n      dup2\n      0x00\n      swap1\n      sstore\n      pop\n      0x01\n      add\n      jump(tag_99)\n    tag_100:\n      pop\n      swap1\n      jump\t// out\n        /* \"#utility.yul\":7:84   */\n    tag_101:\n        /* \"#utility.yul\":44:51   */\n      0x00\n        /* \"#utility.yul\":73:78   */\n      dup2\n        /* \"#utility.yul\":62:78   */\n      swap1\n      pop\n        /* \"#utility.yul\":7:84   */\n      swap2\n      swap1\n      pop\n      jump\t// out\n        /* \"#utility.yul\":90:208   */\n    tag_102:\n        /* \"#utility.yul\":177:201   */\n      tag_133\n        /* \"#utility.yul\":195:200   */\n      dup2\n        /* \"#utility.yul\":177:201   */\n      tag_101\n      jump\t// in\n    tag_133:\n        /* \"#utility.yul\":172:175   */\n      dup3\n        /* \"#utility.yul\":165:202   */\n      mstore\n        /* \"#utility.yul\":90:208   */\n      pop\n      pop\n      jump\t// out\n        /* \"#utility.yul\":214:436   */\n    tag_20:\n        /* \"#utility.yul\":307:311   */\n      0x00\n        /* \"#utility.yul\":345:347   */\n      0x20\n        /* \"#utility.yul\":334:343   */\n      dup3\n        /* \"#utility.yul\":330:348   */\n      add\n        /* \"#utility.yul\":322:348   */\n      swap1\n      pop\n        /* \"#utility.yul\":358:429   */\n      tag_135\n        /* \"#utility.yul\":426:427   */\n      0x00\n        /* \"#utility.yul\":415:424   */\n      dup4\n        /* \"#utility.yul\":411:428   */\n      add\n        /* \"#utility.yul\":402:408   */\n      dup5\n        /* \"#utility.yul\":358:429   */\n      tag_102\n      jump\t// in\n    tag_135:\n        /* \"#utility.yul\":214:436   */\n      swap3\n      swap2\n      pop\n      pop\n      jump\t// out\n        /* \"#utility.yul\":523:640   */\n    tag_104:\n        /* \"#utility.yul\":632:633   */\n      0x00\n        /* \"#utility.yul\":629:630   */\n      dup1\n        /* \"#utility.yul\":622:634   */\n      revert\n        /* \"#utility.yul\":769:895   */\n    tag_106:\n        /* \"#utility.yul\":806:813   */\n      0x00\n        /* \"#utility.yul\":846:888   */\n      0xffffffffffffffffffffffffffffffffffffffff\n        /* \"#utility.yul\":839:844   */\n      dup3\n        /* \"#utility.yul\":835:889   */\n      and\n        /* \"#utility.yul\":824:889   */\n      swap1\n      pop\n        /* \"#utility.yul\":769:895   */\n      swap2\n      swap1\n      pop\n      jump\t// out\n        /* \"#utility.yul\":901:997   */\n    tag_107:\n        /* \"#utility.yul\":938:945   */\n      0x00\n        /* \"#utility.yul\":967:991   */\n      tag_141\n        /* \"#utility.yul\":985:990   */\n      dup3\n        /* \"#utility.yul\":967:991   */\n      tag_106\n      jump\t// in\n    tag_141:\n        /* \"#utility.yul\":956:991   */\n      swap1\n      pop\n        /* \"#utility.yul\":901:997   */\n      swap2\n      swap1\n      pop\n      jump\t// out\n        /* \"#utility.yul\":1003:1125   */\n    tag_108:\n        /* \"#utility.yul\":1076:1100   */\n      tag_143\n        /* \"#utility.yul\":1094:1099   */\n      dup2\n        /* \"#utility.yul\":1076:1100   */\n      tag_107\n      jump\t// in\n    tag_143:\n        /* \"#utility.yul\":1069:1074   */\n      dup2\n        /* \"#utility.yul\":1066:1101   */\n      eq\n        /* \"#utility.yul\":1056:1119   */\n      tag_144\n      jumpi\n        /* \"#utility.yul\":1115:1116   */\n      0x00\n        /* \"#utility.yul\":1112:1113   */\n      dup1\n        /* \"#utility.yul\":1105:1117   */\n      revert\n        /* \"#utility.yul\":1056:1119   */\n    tag_144:\n        /* \"#utility.yul\":1003:1125   */\n      pop\n      jump\t// out\n        /* \"#utility.yul\":1131:1270   */\n    tag_109:\n        /* \"#utility.yul\":1177:1182   */\n      0x00\n        /* \"#utility.yul\":1215:1221   */\n      dup2\n        /* \"#utility.yul\":1202:1222   */\n      calldataload\n        /* \"#utility.yul\":1193:1222   */\n      swap1\n      pop\n        /* \"#utility.yul\":1231:1264   */\n      tag_146\n        /* \"#utility.yul\":1258:1263   */\n      dup2\n        /* \"#utility.yul\":1231:1264   */\n      tag_108\n      jump\t// in\n    tag_146:\n        /* \"#utility.yul\":1131:1270   */\n      swap3\n      swap2\n      pop\n      pop\n      jump\t// out\n        /* \"#utility.yul\":1276:1605   */\n    tag_27:\n        /* \"#utility.yul\":1335:1341   */\n      0x00\n        /* \"#utility.yul\":1384:1386   */\n      0x20\n        /* \"#utility.yul\":1372:1381   */\n      dup3\n        /* \"#utility.yul\":1363:1370   */\n      dup5\n        /* \"#utility.yul\":1359:1382   */\n      sub\n        /* \"#utility.yul\":1355:1387   */\n      slt\n        /* \"#utility.yul\":1352:1471   */\n      iszero\n      tag_148\n      jumpi\n        /* \"#utility.yul\":1390:1469   */\n      tag_149\n      tag_104\n      jump\t// in\n    tag_149:\n        /* \"#utility.yul\":1352:1471   */\n    tag_148:\n        /* \"#utility.yul\":1510:1511   */\n      0x00\n        /* \"#utility.yul\":1535:1588   */\n      tag_150\n        /* \"#utility.yul\":1580:1587   */\n      dup5\n        /* \"#utility.yul\":1571:1577   */\n      dup3\n        /* \"#utility.yul\":1560:1569   */\n      dup6\n        /* \"#utility.yul\":1556:1578   */\n      add\n        /* \"#utility.yul\":1535:1588   */\n      tag_109\n      jump\t// in\n    tag_150:\n        /* \"#utility.yul\":1525:1588   */\n      swap2\n      pop\n        /* \"#utility.yul\":1481:1598   */\n      pop\n        /* \"#utility.yul\":1276:1605   */\n      swap3\n      swap2\n      pop\n      pop\n      jump\t// out\n        /* \"#utility.yul\":1611:1729   */\n    tag_110:\n        /* \"#utility.yul\":1698:1722   */\n      tag_152\n        /* \"#utility.yul\":1716:1721   */\n      dup2\n        /* \"#utility.yul\":1698:1722   */\n      tag_107\n      jump\t// in\n    tag_152:\n        /* \"#utility.yul\":1693:1696   */\n      dup3\n        /* \"#utility.yul\":1686:1723   */\n      mstore\n        /* \"#utility.yul\":1611:1729   */\n      pop\n      pop\n      jump\t// out\n        /* \"#utility.yul\":1735:1957   */\n    tag_35:\n        /* \"#utility.yul\":1828:1832   */\n      0x00\n        /* \"#utility.yul\":1866:1868   */\n      0x20\n        /* \"#utility.yul\":1855:1864   */\n      dup3\n        /* \"#utility.yul\":1851:1869   */\n      add\n        /* \"#utility.yul\":1843:1869   */\n      swap1\n      pop\n        /* \"#utility.yul\":1879:1950   */\n      tag_154\n        /* \"#utility.yul\":1947:1948   */\n      0x00\n        /* \"#utility.yul\":1936:1945   */\n      dup4\n        /* \"#utility.yul\":1932:1949   */\n      add\n        /* \"#utility.yul\":1923:1929   */\n      dup5\n        /* \"#utility.yul\":1879:1950   */\n      tag_110\n      jump\t// in\n    tag_154:\n        /* \"#utility.yul\":1735:1957   */\n      swap3\n      swap2\n      pop\n      pop\n      jump\t// out\n        /* \"#utility.yul\":1963:2085   */\n    tag_111:\n        /* \"#utility.yul\":2036:2060   */\n      tag_156\n        /* \"#utility.yul\":2054:2059   */\n      dup2\n        /* \"#utility.yul\":2036:2060   */\n      tag_101\n      jump\t// in\n    tag_156:\n        /* \"#utility.yul\":2029:2034   */\n      dup2\n        /* \"#utility.yul\":2026:2061   */\n      eq\n        /* \"#utility.yul\":2016:2079   */\n      tag_157\n      jumpi\n        /* \"#utility.yul\":2075:2076   */\n      0x00\n        /* \"#utility.yul\":2072:2073   */\n      dup1\n        /* \"#utility.yul\":2065:2077   */\n      revert\n        /* \"#utility.yul\":2016:2079   */\n    tag_157:\n        /* \"#utility.yul\":1963:2085   */\n      pop\n      jump\t// out\n        /* \"#utility.yul\":2091:2230   */\n    tag_112:\n        /* \"#utility.yul\":2137:2142   */\n      0x00\n        /* \"#utility.yul\":2175:2181   */\n      dup2\n        /* \"#utility.yul\":2162:2182   */\n      calldataload\n        /* \"#utility.yul\":2153:2182   */\n      swap1\n      pop\n        /* \"#utility.yul\":2191:2224   */\n      tag_159\n        /* \"#utility.yul\":2218:2223   */\n      dup2\n        /* \"#utility.yul\":2191:2224   */\n      tag_111\n      jump\t// in\n    tag_159:\n        /* \"#utility.yul\":2091:2230   */\n      swap3\n      swap2\n      pop\n      pop\n      jump\t// out\n        /* \"#utility.yul\":2236:2565   */\n    tag_39:\n        /* \"#utility.yul\":2295:2301   */\n      0x00\n        /* \"#utility.yul\":2344:2346   */\n      0x20\n        /* \"#utility.yul\":2332:2341   */\n      dup3\n        /* \"#utility.yul\":2323:2330   */\n      dup5\n        /* \"#utility.yul\":2319:2342   */\n      sub\n        /* \"#utility.yul\":2315:2347   */\n      slt\n        /* \"#utility.yul\":2312:2431   */\n      iszero\n      tag_161\n      jumpi\n        /* \"#utility.yul\":2350:2429   */\n      tag_162\n      tag_104\n      jump\t// in\n    tag_162:\n        /* \"#utility.yul\":2312:2431   */\n    tag_161:\n        /* \"#utility.yul\":2470:2471   */\n      0x00\n        /* \"#utility.yul\":2495:2548   */\n      tag_163\n        /* \"#utility.yul\":2540:2547   */\n      dup5\n        /* \"#utility.yul\":2531:2537   */\n      dup3\n        /* \"#utility.yul\":2520:2529   */\n      dup6\n        /* \"#utility.yul\":2516:2538   */\n      add\n        /* \"#utility.yul\":2495:2548   */\n      tag_112\n      jump\t// in\n    tag_163:\n        /* \"#utility.yul\":2485:2548   */\n      swap2\n      pop\n        /* \"#utility.yul\":2441:2558   */\n      pop\n        /* \"#utility.yul\":2236:2565   */\n      swap3\n      swap2\n      pop\n      pop\n      jump\t// out\n        /* \"#utility.yul\":2571:2740   */\n    tag_113:\n        /* \"#utility.yul\":2655:2666   */\n      0x00\n        /* \"#utility.yul\":2689:2695   */\n      dup3\n        /* \"#utility.yul\":2684:2687   */\n      dup3\n        /* \"#utility.yul\":2677:2696   */\n      mstore\n        /* \"#utility.yul\":2729:2733   */\n      0x20\n        /* \"#utility.yul\":2724:2727   */\n      dup3\n        /* \"#utility.yul\":2720:2734   */\n      add\n        /* \"#utility.yul\":2705:2734   */\n      swap1\n      pop\n        /* \"#utility.yul\":2571:2740   */\n      swap3\n      swap2\n      pop\n      pop\n      jump\t// out\n        /* \"#utility.yul\":2746:2918   */\n    tag_114:\n        /* \"#utility.yul\":2886:2910   */\n      0x4469646e27742073656e7420656e6f7567682045544800000000000000000000\n        /* \"#utility.yul\":2882:2883   */\n      0x00\n        /* \"#utility.yul\":2874:2880   */\n      dup3\n        /* \"#utility.yul\":2870:2884   */\n      add\n        /* \"#utility.yul\":2863:2911   */\n      mstore\n        /* \"#utility.yul\":2746:2918   */\n      pop\n      jump\t// out\n        /* \"#utility.yul\":2924:3290   */\n    tag_115:\n        /* \"#utility.yul\":3066:3069   */\n      0x00\n        /* \"#utility.yul\":3087:3154   */\n      tag_167\n        /* \"#utility.yul\":3151:3153   */\n      0x16\n        /* \"#utility.yul\":3146:3149   */\n      dup4\n        /* \"#utility.yul\":3087:3154   */\n      tag_113\n      jump\t// in\n    tag_167:\n        /* \"#utility.yul\":3080:3154   */\n      swap2\n      pop\n        /* \"#utility.yul\":3163:3256   */\n      tag_168\n        /* \"#utility.yul\":3252:3255   */\n      dup3\n        /* \"#utility.yul\":3163:3256   */\n      tag_114\n      jump\t// in\n    tag_168:\n        /* \"#utility.yul\":3281:3283   */\n      0x20\n        /* \"#utility.yul\":3276:3279   */\n      dup3\n        /* \"#utility.yul\":3272:3284   */\n      add\n        /* \"#utility.yul\":3265:3284   */\n      swap1\n      pop\n        /* \"#utility.yul\":2924:3290   */\n      swap2\n      swap1\n      pop\n      jump\t// out\n        /* \"#utility.yul\":3296:3715   */\n    tag_47:\n        /* \"#utility.yul\":3462:3466   */\n      0x00\n        /* \"#utility.yul\":3500:3502   */\n      0x20\n        /* \"#utility.yul\":3489:3498   */\n      dup3\n        /* \"#utility.yul\":3485:3503   */\n      add\n        /* \"#utility.yul\":3477:3503   */\n      swap1\n      pop\n        /* \"#utility.yul\":3549:3558   */\n      dup2\n        /* \"#utility.yul\":3543:3547   */\n      dup2\n        /* \"#utility.yul\":3539:3559   */\n      sub\n        /* \"#utility.yul\":3535:3536   */\n      0x00\n        /* \"#utility.yul\":3524:3533   */\n      dup4\n        /* \"#utility.yul\":3520:3537   */\n      add\n        /* \"#utility.yul\":3513:3560   */\n      mstore\n        /* \"#utility.yul\":3577:3708   */\n      tag_170\n        /* \"#utility.yul\":3703:3707   */\n      dup2\n        /* \"#utility.yul\":3577:3708   */\n      tag_115\n      jump\t// in\n    tag_170:\n        /* \"#utility.yul\":3569:3708   */\n      swap1\n      pop\n        /* \"#utility.yul\":3296:3715   */\n      swap2\n      swap1\n      pop\n      jump\t// out\n        /* \"#utility.yul\":3721:3901   */\n    tag_116:\n        /* \"#utility.yul\":3769:3846   */\n      0x4e487b7100000000000000000000000000000000000000000000000000000000\n        /* \"#utility.yul\":3766:3767   */\n      0x00\n        /* \"#utility.yul\":3759:3847   */\n      mstore\n        /* \"#utility.yul\":3866:3870   */\n      0x11\n        /* \"#utility.yul\":3863:3864   */\n      0x04\n        /* \"#utility.yul\":3856:3871   */\n      mstore\n        /* \"#utility.yul\":3890:3894   */\n      0x24\n        /* \"#utility.yul\":3887:3888   */\n      0x00\n        /* \"#utility.yul\":3880:3895   */\n      revert\n        /* \"#utility.yul\":3907:4098   */\n    tag_51:\n        /* \"#utility.yul\":3947:3950   */\n      0x00\n        /* \"#utility.yul\":3966:3986   */\n      tag_173\n        /* \"#utility.yul\":3984:3985   */\n      dup3\n        /* \"#utility.yul\":3966:3986   */\n      tag_101\n      jump\t// in\n    tag_173:\n        /* \"#utility.yul\":3961:3986   */\n      swap2\n      pop\n        /* \"#utility.yul\":4000:4020   */\n      tag_174\n        /* \"#utility.yul\":4018:4019   */\n      dup4\n        /* \"#utility.yul\":4000:4020   */\n      tag_101\n      jump\t// in\n    tag_174:\n        /* \"#utility.yul\":3995:4020   */\n      swap3\n      pop\n        /* \"#utility.yul\":4043:4044   */\n      dup3\n        /* \"#utility.yul\":4040:4041   */\n      dup3\n        /* \"#utility.yul\":4036:4045   */\n      add\n        /* \"#utility.yul\":4029:4045   */\n      swap1\n      pop\n        /* \"#utility.yul\":4064:4067   */\n      dup1\n        /* \"#utility.yul\":4061:4062   */\n      dup3\n        /* \"#utility.yul\":4058:4068   */\n      gt\n        /* \"#utility.yul\":4055:4091   */\n      iszero\n      tag_175\n      jumpi\n        /* \"#utility.yul\":4071:4089   */\n      tag_176\n      tag_116\n      jump\t// in\n    tag_176:\n        /* \"#utility.yul\":4055:4091   */\n    tag_175:\n        /* \"#utility.yul\":3907:4098   */\n      swap3\n      swap2\n      pop\n      pop\n      jump\t// out\n        /* \"#utility.yul\":4104:4284   */\n    tag_60:\n        /* \"#utility.yul\":4152:4229   */\n      0x4e487b7100000000000000000000000000000000000000000000000000000000\n        /* \"#utility.yul\":4149:4150   */\n      0x00\n        /* \"#utility.yul\":4142:4230   */\n      mstore\n        /* \"#utility.yul\":4249:4253   */\n      0x32\n        /* \"#utility.yul\":4246:4247   */\n      0x04\n        /* \"#utility.yul\":4239:4254   */\n      mstore\n        /* \"#utility.yul\":4273:4277   */\n      0x24\n        /* \"#utility.yul\":4270:4271   */\n      0x00\n        /* \"#utility.yul\":4263:4278   */\n      revert\n        /* \"#utility.yul\":4290:4523   */\n    tag_63:\n        /* \"#utility.yul\":4329:4332   */\n      0x00\n        /* \"#utility.yul\":4352:4376   */\n      tag_179\n        /* \"#utility.yul\":4370:4375   */\n      dup3\n        /* \"#utility.yul\":4352:4376   */\n      tag_101\n      jump\t// in\n    tag_179:\n        /* \"#utility.yul\":4343:4376   */\n      swap2\n      pop\n        /* \"#utility.yul\":4398:4464   */\n      0xffffffffffffffffffffffffffffffffffffffffffffffffffffffffffffffff\n        /* \"#utility.yul\":4391:4396   */\n      dup3\n        /* \"#utility.yul\":4388:4465   */\n      sub\n        /* \"#utility.yul\":4385:4488   */\n      tag_180\n      jumpi\n        /* \"#utility.yul\":4468:4486   */\n      tag_181\n      tag_116\n      jump\t// in\n    tag_181:\n        /* \"#utility.yul\":4385:4488   */\n    tag_180:\n        /* \"#utility.yul\":4515:4516   */\n      0x01\n        /* \"#utility.yul\":4508:4513   */\n      dup3\n        /* \"#utility.yul\":4504:4517   */\n      add\n        /* \"#utility.yul\":4497:4517   */\n      swap1\n      pop\n        /* \"#utility.yul\":4290:4523   */\n      swap2\n      swap1\n      pop\n      jump\t// out\n        /* \"#utility.yul\":4529:4709   */\n    tag_66:\n        /* \"#utility.yul\":4577:4654   */\n      0x4e487b7100000000000000000000000000000000000000000000000000000000\n        /* \"#utility.yul\":4574:4575   */\n      0x00\n        /* \"#utility.yul\":4567:4655   */\n      mstore\n        /* \"#utility.yul\":4674:4678   */\n      0x41\n        /* \"#utility.yul\":4671:4672   */\n      0x04\n        /* \"#utility.yul\":4664:4679   */\n      mstore\n        /* \"#utility.yul\":4698:4702   */\n      0x24\n        /* \"#utility.yul\":4695:4696   */\n      0x00\n        /* \"#utility.yul\":4688:4703   */\n      revert\n        /* \"#utility.yul\":4715:4862   */\n    tag_117:\n        /* \"#utility.yul\":4816:4827   */\n      0x00\n        /* \"#utility.yul\":4853:4856   */\n      dup2\n        /* \"#utility.yul\":4838:4856   */\n      swap1\n      pop\n        /* \"#utility.yul\":4715:4862   */\n      swap3\n      swap2\n      pop\n      pop\n      jump\t// out\n        /* \"#utility.yul\":4868:4982   */\n    tag_118:\n      pop\n      jump\t// out\n        /* \"#utility.yul\":4988:5386   */\n    tag_119:\n        /* \"#utility.yul\":5147:5150   */\n      0x00\n        /* \"#utility.yul\":5168:5251   */\n      tag_186\n        /* \"#utility.yul\":5249:5250   */\n      0x00\n        /* \"#utility.yul\":5244:5247   */\n      dup4\n        /* \"#utility.yul\":5168:5251   */\n      tag_117\n      jump\t// in\n    tag_186:\n        /* \"#utility.yul\":5161:5251   */\n      swap2\n      pop\n        /* \"#utility.yul\":5260:5353   */\n      tag_187\n        /* \"#utility.yul\":5349:5352   */\n      dup3\n        /* \"#utility.yul\":5260:5353   */\n      tag_118\n      jump\t// in\n    tag_187:\n        /* \"#utility.yul\":5378:5379   */\n      0x00\n        /* \"#utility.yul\":5373:5376   */\n      dup3\n        /* \"#utility.yul\":5369:5380   */\n      add\n        /* \"#utility.yul\":5362:5380   */\n      swap1\n      pop\n        /* \"#utility.yul\":4988:5386   */\n      swap2\n      swap1\n      pop\n      jump\t// out\n        /* \"#utility.yul\":5392:5771   */\n    tag_71:\n        /* \"#utility.yul\":5576:5579   */\n      0x00\n        /* \"#utility.yul\":5598:5745   */\n      tag_189\n        /* \"#utility.yul\":5741:5744   */\n      dup3\n        /* \"#utility.yul\":5598:5745   */\n      tag_119\n      jump\t// in\n    tag_189:\n        /* \"#utility.yul\":5591:5745   */\n      swap2\n      pop\n        /* \"#utility.yul\":5762:5765   */\n      dup2\n        /* \"#utility.yul\":5755:5765   */\n      swap1\n      pop\n        /* \"#utility.yul\":5392:5771   */\n      swap2\n      swap1\n      pop\n      jump\t// out\n        /* \"#utility.yul\":5777:5938   */\n    tag_120:\n        /* \"#utility.yul\":5917:5930   */\n      0x43616c6c204661696c6564000000000000000000000000000000000000000000\n        /* \"#utility.yul\":5913:5914   */\n      0x00\n        /* \"#utility.yul\":5905:5911   */\n      dup3\n        /* \"#utility.yul\":5901:5915   */\n      add\n        /* \"#utility.yul\":5894:5931   */\n      mstore\n        /* \"#utility.yul\":5777:5938   */\n      pop\n      jump\t// out\n        /* \"#utility.yul\":5944:6310   */\n    tag_121:\n        /* \"#utility.yul\":6086:6089   */\n      0x00\n        /* \"#utility.yul\":6107:6174   */\n      tag_192\n        /* \"#utility.yul\":6171:6173   */\n      0x0b\n        /* \"#utility.yul\":6166:6169   */\n      dup4\n        /* \"#utility.yul\":6107:6174   */\n      tag_113\n      jump\t// in\n    tag_192:\n        /* \"#utility.yul\":6100:6174   */\n      swap2\n      pop\n        /* \"#utility.yul\":6183:6276   */\n      tag_193\n        /* \"#utility.yul\":6272:6275   */\n      dup3\n        /* \"#utility.yul\":6183:6276   */\n      tag_120\n      jump\t// in\n    tag_193:\n        /* \"#utility.yul\":6301:6303   */\n      0x20\n        /* \"#utility.yul\":6296:6299   */\n      dup3\n        /* \"#utility.yul\":6292:6304   */\n      add\n        /* \"#utility.yul\":6285:6304   */\n      swap1\n      pop\n        /* \"#utility.yul\":5944:6310   */\n      swap2\n      swap1\n      pop\n      jump\t// out\n        /* \"#utility.yul\":6316:6735   */\n    tag_77:\n        /* \"#utility.yul\":6482:6486   */\n      0x00\n        /* \"#utility.yul\":6520:6522   */\n      0x20\n        /* \"#utility.yul\":6509:6518   */\n      dup3\n        /* \"#utility.yul\":6505:6523   */\n      add\n        /* \"#utility.yul\":6497:6523   */\n      swap1\n      pop\n        /* \"#utility.yul\":6569:6578   */\n      dup2\n        /* \"#utility.yul\":6563:6567   */\n      dup2\n        /* \"#utility.yul\":6559:6579   */\n      sub\n        /* \"#utility.yul\":6555:6556   */\n      0x00\n        /* \"#utility.yul\":6544:6553   */\n      dup4\n        /* \"#utility.yul\":6540:6557   */\n      add\n        /* \"#utility.yul\":6533:6580   */\n      mstore\n        /* \"#utility.yul\":6597:6728   */\n      tag_195\n        /* \"#utility.yul\":6723:6727   */\n      dup2\n        /* \"#utility.yul\":6597:6728   */\n      tag_121\n      jump\t// in\n    tag_195:\n        /* \"#utility.yul\":6589:6728   */\n      swap1\n      pop\n        /* \"#utility.yul\":6316:6735   */\n      swap2\n      swap1\n      pop\n      jump\t// out\n        /* \"#utility.yul\":6741:7151   */\n    tag_84:\n        /* \"#utility.yul\":6781:6788   */\n      0x00\n        /* \"#utility.yul\":6804:6824   */\n      tag_197\n        /* \"#utility.yul\":6822:6823   */\n      dup3\n        /* \"#utility.yul\":6804:6824   */\n      tag_101\n      jump\t// in\n    tag_197:\n        /* \"#utility.yul\":6799:6824   */\n      swap2\n      pop\n        /* \"#utility.yul\":6838:6858   */\n      tag_198\n        /* \"#utility.yul\":6856:6857   */\n      dup4\n        /* \"#utility.yul\":6838:6858   */\n      tag_101\n      jump\t// in\n    tag_198:\n        /* \"#utility.yul\":6833:6858   */\n      swap3\n      pop\n        /* \"#utility.yul\":6893:6894   */\n      dup3\n        /* \"#utility.yul\":6890:6891   */\n      dup3\n        /* \"#utility.yul\":6886:6895   */\n      mul\n        /* \"#utility.yul\":6915:6945   */\n      tag_199\n        /* \"#utility.yul\":6933:6944   */\n      dup2\n        /* \"#utility.yul\":6915:6945   */\n      tag_101\n      jump\t// in\n    tag_199:\n        /* \"#utility.yul\":6904:6945   */\n      swap2\n      pop\n        /* \"#utility.yul\":7094:7095   */\n      dup3\n        /* \"#utility.yul\":7085:7092   */\n      dup3\n        /* \"#utility.yul\":7081:7096   */\n      div\n        /* \"#utility.yul\":7078:7079   */\n      dup5\n        /* \"#utility.yul\":7075:7097   */\n      eq\n        /* \"#utility.yul\":7055:7056   */\n      dup4\n        /* \"#utility.yul\":7048:7057   */\n      iszero\n        /* \"#utility.yul\":7028:7111   */\n      or\n        /* \"#utility.yul\":7005:7144   */\n      tag_200\n      jumpi\n        /* \"#utility.yul\":7124:7142   */\n      tag_201\n      tag_116\n      jump\t// in\n    tag_201:\n        /* \"#utility.yul\":7005:7144   */\n    tag_200:\n        /* \"#utility.yul\":6789:7151   */\n      pop\n        /* \"#utility.yul\":6741:7151   */\n      swap3\n      swap2\n      pop\n      pop\n      jump\t// out\n        /* \"#utility.yul\":7157:7337   */\n    tag_122:\n        /* \"#utility.yul\":7205:7282   */\n      0x4e487b7100000000000000000000000000000000000000000000000000000000\n        /* \"#utility.yul\":7202:7203   */\n      0x00\n        /* \"#utility.yul\":7195:7283   */\n      mstore\n        /* \"#utility.yul\":7302:7306   */\n      0x12\n        /* \"#utility.yul\":7299:7300   */\n      0x04\n        /* \"#utility.yul\":7292:7307   */\n      mstore\n        /* \"#utility.yul\":7326:7330   */\n      0x24\n        /* \"#utility.yul\":7323:7324   */\n      0x00\n        /* \"#utility.yul\":7316:7331   */\n      revert\n        /* \"#utility.yul\":7343:7528   */\n    tag_86:\n        /* \"#utility.yul\":7383:7384   */\n      0x00\n        /* \"#utility.yul\":7400:7420   */\n      tag_204\n        /* \"#utility.yul\":7418:7419   */\n      dup3\n        /* \"#utility.yul\":7400:7420   */\n      tag_101\n      jump\t// in\n    tag_204:\n        /* \"#utility.yul\":7395:7420   */\n      swap2\n      pop\n        /* \"#utility.yul\":7434:7454   */\n      tag_205\n        /* \"#utility.yul\":7452:7453   */\n      dup4\n        /* \"#utility.yul\":7434:7454   */\n      tag_101\n      jump\t// in\n    tag_205:\n        /* \"#utility.yul\":7429:7454   */\n      swap3\n      pop\n        /* \"#utility.yul\":7473:7474   */\n      dup3\n        /* \"#utility.yul\":7463:7498   */\n      tag_206\n      jumpi\n        /* \"#utility.yul\":7478:7496   */\n      tag_207\n      tag_122\n      jump\t// in\n    tag_207:\n        /* \"#utility.yul\":7463:7498   */\n    tag_206:\n        /* \"#utility.yul\":7520:7521   */\n      dup3\n        /* \"#utility.yul\":7517:7518   */\n      dup3\n        /* \"#utility.yul\":7513:7522   */\n      div\n        /* \"#utility.yul\":7508:7522   */\n      swap1\n      pop\n        /* \"#utility.yul\":7343:7528   */\n      swap3\n      swap2\n      pop\n      pop\n      jump\t// out\n        /* \"#utility.yul\":7534:7639   */\n    tag_123:\n        /* \"#utility.yul\":7570:7577   */\n      0x00\n        /* \"#utility.yul\":7610:7632   */\n      0xffffffffffffffffffff\n        /* \"#utility.yul\":7603:7608   */\n      dup3\n        /* \"#utility.yul\":7599:7633   */\n      and\n        /* \"#utility.yul\":7588:7633   */\n      swap1\n      pop\n        /* \"#utility.yul\":7534:7639   */\n      swap2\n      swap1\n      pop\n      jump\t// out\n        /* \"#utility.yul\":7645:7765   */\n    tag_124:\n        /* \"#utility.yul\":7717:7740   */\n      tag_210\n        /* \"#utility.yul\":7734:7739   */\n      dup2\n        /* \"#utility.yul\":7717:7740   */\n      tag_123\n      jump\t// in\n    tag_210:\n        /* \"#utility.yul\":7710:7715   */\n      dup2\n        /* \"#utility.yul\":7707:7741   */\n      eq\n        /* \"#utility.yul\":7697:7759   */\n      tag_211\n      jumpi\n        /* \"#utility.yul\":7755:7756   */\n      0x00\n        /* \"#utility.yul\":7752:7753   */\n      dup1\n        /* \"#utility.yul\":7745:7757   */\n      revert\n        /* \"#utility.yul\":7697:7759   */\n    tag_211:\n        /* \"#utility.yul\":7645:7765   */\n      pop\n      jump\t// out\n        /* \"#utility.yul\":7771:7912   */\n    tag_125:\n        /* \"#utility.yul\":7827:7832   */\n      0x00\n        /* \"#utility.yul\":7858:7864   */\n      dup2\n        /* \"#utility.yul\":7852:7865   */\n      mload\n        /* \"#utility.yul\":7843:7865   */\n      swap1\n      pop\n        /* \"#utility.yul\":7874:7906   */\n      tag_213\n        /* \"#utility.yul\":7900:7905   */\n      dup2\n        /* \"#utility.yul\":7874:7906   */\n      tag_124\n      jump\t// in\n    tag_213:\n        /* \"#utility.yul\":7771:7912   */\n      swap3\n      swap2\n      pop\n      pop\n      jump\t// out\n        /* \"#utility.yul\":7918:7994   */\n    tag_126:\n        /* \"#utility.yul\":7954:7961   */\n      0x00\n        /* \"#utility.yul\":7983:7988   */\n      dup2\n        /* \"#utility.yul\":7972:7988   */\n      swap1\n      pop\n        /* \"#utility.yul\":7918:7994   */\n      swap2\n      swap1\n      pop\n      jump\t// out\n        /* \"#utility.yul\":8000:8120   */\n    tag_127:\n        /* \"#utility.yul\":8072:8095   */\n      tag_216\n        /* \"#utility.yul\":8089:8094   */\n      dup2\n        /* \"#utility.yul\":8072:8095   */\n      tag_126\n      jump\t// in\n    tag_216:\n        /* \"#utility.yul\":8065:8070   */\n      dup2\n        /* \"#utility.yul\":8062:8096   */\n      eq\n        /* \"#utility.yul\":8052:8114   */\n      tag_217\n      jumpi\n        /* \"#utility.yul\":8110:8111   */\n      0x00\n        /* \"#utility.yul\":8107:8108   */\n      dup1\n        /* \"#utility.yul\":8100:8112   */\n      revert\n        /* \"#utility.yul\":8052:8114   */\n    tag_217:\n        /* \"#utility.yul\":8000:8120   */\n      pop\n      jump\t// out\n        /* \"#utility.yul\":8126:8267   */\n    tag_128:\n        /* \"#utility.yul\":8182:8187   */\n      0x00\n        /* \"#utility.yul\":8213:8219   */\n      dup2\n        /* \"#utility.yul\":8207:8220   */\n      mload\n        /* \"#utility.yul\":8198:8220   */\n      swap1\n      pop\n        /* \"#utility.yul\":8229:8261   */\n      tag_219\n        /* \"#utility.yul\":8255:8260   */\n      dup2\n        /* \"#utility.yul\":8229:8261   */\n      tag_127\n      jump\t// in\n    tag_219:\n        /* \"#utility.yul\":8126:8267   */\n      swap3\n      swap2\n      pop\n      pop\n      jump\t// out\n        /* \"#utility.yul\":8273:8416   */\n    tag_129:\n        /* \"#utility.yul\":8330:8335   */\n      0x00\n        /* \"#utility.yul\":8361:8367   */\n      dup2\n        /* \"#utility.yul\":8355:8368   */\n      mload\n        /* \"#utility.yul\":8346:8368   */\n      swap1\n      pop\n        /* \"#utility.yul\":8377:8410   */\n      tag_221\n        /* \"#utility.yul\":8404:8409   */\n      dup2\n        /* \"#utility.yul\":8377:8410   */\n      tag_111\n      jump\t// in\n    tag_221:\n        /* \"#utility.yul\":8273:8416   */\n      swap3\n      swap2\n      pop\n      pop\n      jump\t// out\n        /* \"#utility.yul\":8422:9393   */\n    tag_91:\n        /* \"#utility.yul\":8525:8531   */\n      0x00\n        /* \"#utility.yul\":8533:8539   */\n      dup1\n        /* \"#utility.yul\":8541:8547   */\n      0x00\n        /* \"#utility.yul\":8549:8555   */\n      dup1\n        /* \"#utility.yul\":8557:8563   */\n      0x00\n        /* \"#utility.yul\":8606:8609   */\n      0xa0\n        /* \"#utility.yul\":8594:8603   */\n      dup7\n        /* \"#utility.yul\":8585:8592   */\n      dup9\n        /* \"#utility.yul\":8581:8604   */\n      sub\n        /* \"#utility.yul\":8577:8610   */\n      slt\n        /* \"#utility.yul\":8574:8694   */\n      iszero\n      tag_223\n      jumpi\n        /* \"#utility.yul\":8613:8692   */\n      tag_224\n      tag_104\n      jump\t// in\n    tag_224:\n        /* \"#utility.yul\":8574:8694   */\n    tag_223:\n        /* \"#utility.yul\":8733:8734   */\n      0x00\n        /* \"#utility.yul\":8758:8821   */\n      tag_225\n        /* \"#utility.yul\":8813:8820   */\n      dup9\n        /* \"#utility.yul\":8804:8810   */\n      dup3\n        /* \"#utility.yul\":8793:8802   */\n      dup10\n        /* \"#utility.yul\":8789:8811   */\n      add\n        /* \"#utility.yul\":8758:8821   */\n      tag_125\n      jump\t// in\n    tag_225:\n        /* \"#utility.yul\":8748:8821   */\n      swap6\n      pop\n        /* \"#utility.yul\":8704:8831   */\n      pop\n        /* \"#utility.yul\":8870:8872   */\n      0x20\n        /* \"#utility.yul\":8896:8959   */\n      tag_226\n        /* \"#utility.yul\":8951:8958   */\n      dup9\n        /* \"#utility.yul\":8942:8948   */\n      dup3\n        /* \"#utility.yul\":8931:8940   */\n      dup10\n        /* \"#utility.yul\":8927:8949   */\n      add\n        /* \"#utility.yul\":8896:8959   */\n      tag_128\n      jump\t// in\n    tag_226:\n        /* \"#utility.yul\":8886:8959   */\n      swap5\n      pop\n        /* \"#utility.yul\":8841:8969   */\n      pop\n        /* \"#utility.yul\":9008:9010   */\n      0x40\n        /* \"#utility.yul\":9034:9098   */\n      tag_227\n        /* \"#utility.yul\":9090:9097   */\n      dup9\n        /* \"#utility.yul\":9081:9087   */\n      dup3\n        /* \"#utility.yul\":9070:9079   */\n      dup10\n        /* \"#utility.yul\":9066:9088   */\n      add\n        /* \"#utility.yul\":9034:9098   */\n      tag_129\n      jump\t// in\n    tag_227:\n        /* \"#utility.yul\":9024:9098   */\n      swap4\n      pop\n        /* \"#utility.yul\":8979:9108   */\n      pop\n        /* \"#utility.yul\":9147:9149   */\n      0x60\n        /* \"#utility.yul\":9173:9237   */\n      tag_228\n        /* \"#utility.yul\":9229:9236   */\n      dup9\n        /* \"#utility.yul\":9220:9226   */\n      dup3\n        /* \"#utility.yul\":9209:9218   */\n      dup10\n        /* \"#utility.yul\":9205:9227   */\n      add\n        /* \"#utility.yul\":9173:9237   */\n      tag_129\n      jump\t// in\n    tag_228:\n        /* \"#utility.yul\":9163:9237   */\n      swap3\n      pop\n        /* \"#utility.yul\":9118:9247   */\n      pop\n        /* \"#utility.yul\":9286:9289   */\n      0x80\n        /* \"#utility.yul\":9313:9376   */\n      tag_229\n        /* \"#utility.yul\":9368:9375   */\n      dup9\n        /* \"#utility.yul\":9359:9365   */\n      dup3\n        /* \"#utility.yul\":9348:9357   */\n      dup10\n        /* \"#utility.yul\":9344:9366   */\n      add\n        /* \"#utility.yul\":9313:9376   */\n      tag_125\n      jump\t// in\n    tag_229:\n        /* \"#utility.yul\":9303:9376   */\n      swap2\n      pop\n        /* \"#utility.yul\":9257:9386   */\n      pop\n        /* \"#utility.yul\":8422:9393   */\n      swap3\n      swap6\n      pop\n      swap3\n      swap6\n      swap1\n      swap4\n      pop\n      jump\t// out\n        /* \"#utility.yul\":9399:9955   */\n    tag_93:\n        /* \"#utility.yul\":9438:9445   */\n      0x00\n        /* \"#utility.yul\":9461:9480   */\n      tag_231\n        /* \"#utility.yul\":9478:9479   */\n      dup3\n        /* \"#utility.yul\":9461:9480   */\n      tag_126\n      jump\t// in\n    tag_231:\n        /* \"#utility.yul\":9456:9480   */\n      swap2\n      pop\n        /* \"#utility.yul\":9494:9513   */\n      tag_232\n        /* \"#utility.yul\":9511:9512   */\n      dup4\n        /* \"#utility.yul\":9494:9513   */\n      tag_126\n      jump\t// in\n    tag_232:\n        /* \"#utility.yul\":9489:9513   */\n      swap3\n      pop\n        /* \"#utility.yul\":9548:9549   */\n      dup3\n        /* \"#utility.yul\":9545:9546   */\n      dup3\n        /* \"#utility.yul\":9541:9550   */\n      mul\n        /* \"#utility.yul\":9570:9599   */\n      tag_233\n        /* \"#utility.yul\":9587:9598   */\n      dup2\n        /* \"#utility.yul\":9570:9599   */\n      tag_126\n      jump\t// in\n    tag_233:\n        /* \"#utility.yul\":9559:9599   */\n      swap2\n      pop\n        /* \"#utility.yul\":9657:9723   */\n      0x8000000000000000000000000000000000000000000000000000000000000000\n        /* \"#utility.yul\":9654:9655   */\n      dup5\n        /* \"#utility.yul\":9651:9724   */\n      eq\n        /* \"#utility.yul\":9647:9648   */\n      0x00\n        /* \"#utility.yul\":9644:9645   */\n      dup5\n        /* \"#utility.yul\":9640:9649   */\n      slt\n        /* \"#utility.yul\":9636:9725   */\n      and\n        /* \"#utility.yul\":9633:9748   */\n      iszero\n      tag_234\n      jumpi\n        /* \"#utility.yul\":9728:9746   */\n      tag_235\n      tag_116\n      jump\t// in\n    tag_235:\n        /* \"#utility.yul\":9633:9748   */\n    tag_234:\n        /* \"#utility.yul\":9898:9899   */\n      dup3\n        /* \"#utility.yul\":9889:9896   */\n      dup3\n        /* \"#utility.yul\":9884:9900   */\n      sdiv\n        /* \"#utility.yul\":9881:9882   */\n      dup5\n        /* \"#utility.yul\":9878:9901   */\n      eq\n        /* \"#utility.yul\":9858:9859   */\n      dup4\n        /* \"#utility.yul\":9851:9860   */\n      iszero\n        /* \"#utility.yul\":9831:9915   */\n      or\n        /* \"#utility.yul\":9808:9948   */\n      tag_236\n      jumpi\n        /* \"#utility.yul\":9928:9946   */\n      tag_237\n      tag_116\n      jump\t// in\n    tag_237:\n        /* \"#utility.yul\":9808:9948   */\n    tag_236:\n        /* \"#utility.yul\":9446:9955   */\n      pop\n        /* \"#utility.yul\":9399:9955   */\n      swap3\n      swap2\n      pop\n      pop\n      jump\t// out\n\n    auxdata: 0xa26469706673582212205f53e81f00f73a9b04b05e817f973e63b184ba5b0407dfcf86b2f884a084d1ba64736f6c63430008130033\n}\n",
				"bytecode": {
					"linkReferences": {},
					"object": "60a060405234801561001057600080fd5b5073feeff7c3fb57d18c5c6cdd71e45d2d0b4f9377bf6000806101000a81548173ffffffffffffffffffffffffffffffffffffffff021916908373ffffffffffffffffffffffffffffffffffffffff1602179055503373ffffffffffffffffffffffffffffffffffffffff1660808173ffffffffffffffffffffffffffffffffffffffff1681525050608051610ca26100bb6000396000818161028701526104e00152610ca26000f3fe6080604052600436106100595760003560e01c80632100f479146100725780633ccfd60b1461009d5780633e47d6f3146100b4578063b60d4288146100f1578063dba6335f146100fb578063dc0d3dff1461012657610068565b3661006857610066610163565b005b610070610163565b005b34801561007e57600080fd5b50610087610279565b60405161009491906106e4565b60405180910390f35b3480156100a957600080fd5b506100b2610285565b005b3480156100c057600080fd5b506100db60048036038101906100d69190610762565b6104c6565b6040516100e891906106e4565b60405180910390f35b6100f9610163565b005b34801561010757600080fd5b506101106104de565b60405161011d919061079e565b60405180910390f35b34801561013257600080fd5b5061014d600480360381019061014891906107e5565b610502565b60405161015a919061079e565b60405180910390f35b674563918244f4000061017534610541565b10156101b6576040517f08c379a00000000000000000000000000000000000000000000000000000000081526004016101ad9061086f565b60405180910390fd5b6001339080600181540180825580915050600190039060005260206000200160009091909190916101000a81548173ffffffffffffffffffffffffffffffffffffffff021916908373ffffffffffffffffffffffffffffffffffffffff16021790555061022234610541565b600260003373ffffffffffffffffffffffffffffffffffffffff1673ffffffffffffffffffffffffffffffffffffffff168152602001908152602001600020600082825461027091906108be565b92505081905550565b674563918244f4000081565b7f000000000000000000000000000000000000000000000000000000000000000073ffffffffffffffffffffffffffffffffffffffff163373ffffffffffffffffffffffffffffffffffffffff160361030a576040517f251c9d6300000000000000000000000000000000000000000000000000000000815260040160405180910390fd5b60005b6001805490508110156103b6576000600182815481106103305761032f6108f2565b5b9060005260206000200160009054906101000a900473ffffffffffffffffffffffffffffffffffffffff1690506000600260008373ffffffffffffffffffffffffffffffffffffffff1673ffffffffffffffffffffffffffffffffffffffff168152602001908152602001600020819055505080806103ae90610921565b91505061030d565b50600067ffffffffffffffff8111156103d2576103d1610969565b5b6040519080825280602002602001820160405280156104005781602001602082028036833780820191505090505b5060019080519060200190610416929190610624565b5060003373ffffffffffffffffffffffffffffffffffffffff164760405161043d906109c9565b60006040518083038185875af1925050503d806000811461047a576040519150601f19603f3d011682016040523d82523d6000602084013e61047f565b606091505b50509050806104c3576040517f08c379a00000000000000000000000000000000000000000000000000000000081526004016104ba90610a2a565b60405180910390fd5b50565b60026020528060005260406000206000915090505481565b7f000000000000000000000000000000000000000000000000000000000000000081565b6001818154811061051257600080fd5b906000526020600020016000915054906101000a900473ffffffffffffffffffffffffffffffffffffffff1681565b60008061054c61057b565b90506000670de0b6b3a764000084836105659190610a4a565b61056f9190610abb565b90508092505050919050565b60008073694aa1769357215de4fac081bf1f309adc325306905060008173ffffffffffffffffffffffffffffffffffffffff1663feaf968c6040518163ffffffff1660e01b815260040160a060405180830381865afa1580156105e2573d6000803e3d6000fd5b505050506040513d601f19601f820116820180604052508101906106069190610b79565b5050509150506402540be4008161061d9190610bf4565b9250505090565b82805482825590600052602060002090810192821561069d579160200282015b8281111561069c5782518260006101000a81548173ffffffffffffffffffffffffffffffffffffffff021916908373ffffffffffffffffffffffffffffffffffffffff16021790555091602001919060010190610644565b5b5090506106aa91906106ae565b5090565b5b808211156106c75760008160009055506001016106af565b5090565b6000819050919050565b6106de816106cb565b82525050565b60006020820190506106f960008301846106d5565b92915050565b600080fd5b600073ffffffffffffffffffffffffffffffffffffffff82169050919050565b600061072f82610704565b9050919050565b61073f81610724565b811461074a57600080fd5b50565b60008135905061075c81610736565b92915050565b600060208284031215610778576107776106ff565b5b60006107868482850161074d565b91505092915050565b61079881610724565b82525050565b60006020820190506107b3600083018461078f565b92915050565b6107c2816106cb565b81146107cd57600080fd5b50565b6000813590506107df816107b9565b92915050565b6000602082840312156107fb576107fa6106ff565b5b6000610809848285016107d0565b91505092915050565b600082825260208201905092915050565b7f4469646e27742073656e7420656e6f7567682045544800000000000000000000600082015250565b6000610859601683610812565b915061086482610823565b602082019050919050565b600060208201905081810360008301526108888161084c565b9050919050565b7f4e487b7100000000000000000000000000000000000000000000000000000000600052601160045260246000fd5b60006108c9826106cb565b91506108d4836106cb565b92508282019050808211156108ec576108eb61088f565b5b92915050565b7f4e487b7100000000000000000000000000000000000000000000000000000000600052603260045260246000fd5b600061092c826106cb565b91507fffffffffffffffffffffffffffffffffffffffffffffffffffffffffffffffff820361095e5761095d61088f565b5b600182019050919050565b7f4e487b7100000000000000000000000000000000000000000000000000000000600052604160045260246000fd5b600081905092915050565b50565b60006109b3600083610998565b91506109be826109a3565b600082019050919050565b60006109d4826109a6565b9150819050919050565b7f43616c6c204661696c6564000000000000000000000000000000000000000000600082015250565b6000610a14600b83610812565b9150610a1f826109de565b602082019050919050565b60006020820190508181036000830152610a4381610a07565b9050919050565b6000610a55826106cb565b9150610a60836106cb565b9250828202610a6e816106cb565b91508282048414831517610a8557610a8461088f565b5b5092915050565b7f4e487b7100000000000000000000000000000000000000000000000000000000600052601260045260246000fd5b6000610ac6826106cb565b9150610ad1836106cb565b925082610ae157610ae0610a8c565b5b828204905092915050565b600069ffffffffffffffffffff82169050919050565b610b0b81610aec565b8114610b1657600080fd5b50565b600081519050610b2881610b02565b92915050565b6000819050919050565b610b4181610b2e565b8114610b4c57600080fd5b50565b600081519050610b5e81610b38565b92915050565b600081519050610b73816107b9565b92915050565b600080600080600060a08688031215610b9557610b946106ff565b5b6000610ba388828901610b19565b9550506020610bb488828901610b4f565b9450506040610bc588828901610b64565b9350506060610bd688828901610b64565b9250506080610be788828901610b19565b9150509295509295909350565b6000610bff82610b2e565b9150610c0a83610b2e565b9250828202610c1881610b2e565b91507f80000000000000000000000000000000000000000000000000000000000000008414600084121615610c5057610c4f61088f565b5b8282058414831517610c6557610c6461088f565b5b509291505056fea26469706673582212205f53e81f00f73a9b04b05e817f973e63b184ba5b0407dfcf86b2f884a084d1ba64736f6c63430008130033",
					"opcodes": "PUSH1 0xA0 PUSH1 0x40 MSTORE CALLVALUE DUP1 ISZERO PUSH2 0x10 JUMPI PUSH1 0x0 DUP1 REVERT JUMPDEST POP PUSH20 0xFEEFF7C3FB57D18C5C6CDD71E45D2D0B4F9377BF PUSH1 0x0 DUP1 PUSH2 0x100 EXP DUP2 SLOAD DUP2 PUSH20 0xFFFFFFFFFFFFFFFFFFFFFFFFFFFFFFFFFFFFFFFF MUL NOT AND SWAP1 DUP4 PUSH20 0xFFFFFFFFFFFFFFFFFFFFFFFFFFFFFFFFFFFFFFFF AND MUL OR SWAP1 SSTORE POP CALLER PUSH20 0xFFFFFFFFFFFFFFFFFFFFFFFFFFFFFFFFFFFFFFFF AND PUSH1 0x80 DUP2 PUSH20 0xFFFFFFFFFFFFFFFFFFFFFFFFFFFFFFFFFFFFFFFF AND DUP2 MSTORE POP POP PUSH1 0x80 MLOAD PUSH2 0xCA2 PUSH2 0xBB PUSH1 0x0 CODECOPY PUSH1 0x0 DUP2 DUP2 PUSH2 0x287 ADD MSTORE PUSH2 0x4E0 ADD MSTORE PUSH2 0xCA2 PUSH1 0x0 RETURN INVALID PUSH1 0x80 PUSH1 0x40 MSTORE PUSH1 0x4 CALLDATASIZE LT PUSH2 0x59 JUMPI PUSH1 0x0 CALLDATALOAD PUSH1 0xE0 SHR DUP1 PUSH4 0x2100F479 EQ PUSH2 0x72 JUMPI DUP1 PUSH4 0x3CCFD60B EQ PUSH2 0x9D JUMPI DUP1 PUSH4 0x3E47D6F3 EQ PUSH2 0xB4 JUMPI DUP1 PUSH4 0xB60D4288 EQ PUSH2 0xF1 JUMPI DUP1 PUSH4 0xDBA6335F EQ PUSH2 0xFB JUMPI DUP1 PUSH4 0xDC0D3DFF EQ PUSH2 0x126 JUMPI PUSH2 0x68 JUMP JUMPDEST CALLDATASIZE PUSH2 0x68 JUMPI PUSH2 0x66 PUSH2 0x163 JUMP JUMPDEST STOP JUMPDEST PUSH2 0x70 PUSH2 0x163 JUMP JUMPDEST STOP JUMPDEST CALLVALUE DUP1 ISZERO PUSH2 0x7E JUMPI PUSH1 0x0 DUP1 REVERT JUMPDEST POP PUSH2 0x87 PUSH2 0x279 JUMP JUMPDEST PUSH1 0x40 MLOAD PUSH2 0x94 SWAP2 SWAP1 PUSH2 0x6E4 JUMP JUMPDEST PUSH1 0x40 MLOAD DUP1 SWAP2 SUB SWAP1 RETURN JUMPDEST CALLVALUE DUP1 ISZERO PUSH2 0xA9 JUMPI PUSH1 0x0 DUP1 REVERT JUMPDEST POP PUSH2 0xB2 PUSH2 0x285 JUMP JUMPDEST STOP JUMPDEST CALLVALUE DUP1 ISZERO PUSH2 0xC0 JUMPI PUSH1 0x0 DUP1 REVERT JUMPDEST POP PUSH2 0xDB PUSH1 0x4 DUP1 CALLDATASIZE SUB DUP2 ADD SWAP1 PUSH2 0xD6 SWAP2 SWAP1 PUSH2 0x762 JUMP JUMPDEST PUSH2 0x4C6 JUMP JUMPDEST PUSH1 0x40 MLOAD PUSH2 0xE8 SWAP2 SWAP1 PUSH2 0x6E4 JUMP JUMPDEST PUSH1 0x40 MLOAD DUP1 SWAP2 SUB SWAP1 RETURN JUMPDEST PUSH2 0xF9 PUSH2 0x163 JUMP JUMPDEST STOP JUMPDEST CALLVALUE DUP1 ISZERO PUSH2 0x107 JUMPI PUSH1 0x0 DUP1 REVERT JUMPDEST POP PUSH2 0x110 PUSH2 0x4DE JUMP JUMPDEST PUSH1 0x40 MLOAD PUSH2 0x11D SWAP2 SWAP1 PUSH2 0x79E JUMP JUMPDEST PUSH1 0x40 MLOAD DUP1 SWAP2 SUB SWAP1 RETURN JUMPDEST CALLVALUE DUP1 ISZERO PUSH2 0x132 JUMPI PUSH1 0x0 DUP1 REVERT JUMPDEST POP PUSH2 0x14D PUSH1 0x4 DUP1 CALLDATASIZE SUB DUP2 ADD SWAP1 PUSH2 0x148 SWAP2 SWAP1 PUSH2 0x7E5 JUMP JUMPDEST PUSH2 0x502 JUMP JUMPDEST PUSH1 0x40 MLOAD PUSH2 0x15A SWAP2 SWAP1 PUSH2 0x79E JUMP JUMPDEST PUSH1 0x40 MLOAD DUP1 SWAP2 SUB SWAP1 RETURN JUMPDEST PUSH8 0x4563918244F40000 PUSH2 0x175 CALLVALUE PUSH2 0x541 JUMP JUMPDEST LT ISZERO PUSH2 0x1B6 JUMPI PUSH1 0x40 MLOAD PUSH32 0x8C379A000000000000000000000000000000000000000000000000000000000 DUP2 MSTORE PUSH1 0x4 ADD PUSH2 0x1AD SWAP1 PUSH2 0x86F JUMP JUMPDEST PUSH1 0x40 MLOAD DUP1 SWAP2 SUB SWAP1 REVERT JUMPDEST PUSH1 0x1 CALLER SWAP1 DUP1 PUSH1 0x1 DUP2 SLOAD ADD DUP1 DUP3 SSTORE DUP1 SWAP2 POP POP PUSH1 0x1 SWAP1 SUB SWAP1 PUSH1 0x0 MSTORE PUSH1 0x20 PUSH1 0x0 KECCAK256 ADD PUSH1 0x0 SWAP1 SWAP2 SWAP1 SWAP2 SWAP1 SWAP2 PUSH2 0x100 EXP DUP2 SLOAD DUP2 PUSH20 0xFFFFFFFFFFFFFFFFFFFFFFFFFFFFFFFFFFFFFFFF MUL NOT AND SWAP1 DUP4 PUSH20 0xFFFFFFFFFFFFFFFFFFFFFFFFFFFFFFFFFFFFFFFF AND MUL OR SWAP1 SSTORE POP PUSH2 0x222 CALLVALUE PUSH2 0x541 JUMP JUMPDEST PUSH1 0x2 PUSH1 0x0 CALLER PUSH20 0xFFFFFFFFFFFFFFFFFFFFFFFFFFFFFFFFFFFFFFFF AND PUSH20 0xFFFFFFFFFFFFFFFFFFFFFFFFFFFFFFFFFFFFFFFF AND DUP2 MSTORE PUSH1 0x20 ADD SWAP1 DUP2 MSTORE PUSH1 0x20 ADD PUSH1 0x0 KECCAK256 PUSH1 0x0 DUP3 DUP3 SLOAD PUSH2 0x270 SWAP2 SWAP1 PUSH2 0x8BE JUMP JUMPDEST SWAP3 POP POP DUP2 SWAP1 SSTORE POP JUMP JUMPDEST PUSH8 0x4563918244F40000 DUP2 JUMP JUMPDEST PUSH32 0x0 PUSH20 0xFFFFFFFFFFFFFFFFFFFFFFFFFFFFFFFFFFFFFFFF AND CALLER PUSH20 0xFFFFFFFFFFFFFFFFFFFFFFFFFFFFFFFFFFFFFFFF AND SUB PUSH2 0x30A JUMPI PUSH1 0x40 MLOAD PUSH32 0x251C9D6300000000000000000000000000000000000000000000000000000000 DUP2 MSTORE PUSH1 0x4 ADD PUSH1 0x40 MLOAD DUP1 SWAP2 SUB SWAP1 REVERT JUMPDEST PUSH1 0x0 JUMPDEST PUSH1 0x1 DUP1 SLOAD SWAP1 POP DUP2 LT ISZERO PUSH2 0x3B6 JUMPI PUSH1 0x0 PUSH1 0x1 DUP3 DUP2 SLOAD DUP2 LT PUSH2 0x330 JUMPI PUSH2 0x32F PUSH2 0x8F2 JUMP JUMPDEST JUMPDEST SWAP1 PUSH1 0x0 MSTORE PUSH1 0x20 PUSH1 0x0 KECCAK256 ADD PUSH1 0x0 SWAP1 SLOAD SWAP1 PUSH2 0x100 EXP SWAP1 DIV PUSH20 0xFFFFFFFFFFFFFFFFFFFFFFFFFFFFFFFFFFFFFFFF AND SWAP1 POP PUSH1 0x0 PUSH1 0x2 PUSH1 0x0 DUP4 PUSH20 0xFFFFFFFFFFFFFFFFFFFFFFFFFFFFFFFFFFFFFFFF AND PUSH20 0xFFFFFFFFFFFFFFFFFFFFFFFFFFFFFFFFFFFFFFFF AND DUP2 MSTORE PUSH1 0x20 ADD SWAP1 DUP2 MSTORE PUSH1 0x20 ADD PUSH1 0x0 KECCAK256 DUP2 SWAP1 SSTORE POP POP DUP1 DUP1 PUSH2 0x3AE SWAP1 PUSH2 0x921 JUMP JUMPDEST SWAP2 POP POP PUSH2 0x30D JUMP JUMPDEST POP PUSH1 0x0 PUSH8 0xFFFFFFFFFFFFFFFF DUP2 GT ISZERO PUSH2 0x3D2 JUMPI PUSH2 0x3D1 PUSH2 0x969 JUMP JUMPDEST JUMPDEST PUSH1 0x40 MLOAD SWAP1 DUP1 DUP3 MSTORE DUP1 PUSH1 0x20 MUL PUSH1 0x20 ADD DUP3 ADD PUSH1 0x40 MSTORE DUP1 ISZERO PUSH2 0x400 JUMPI DUP2 PUSH1 0x20 ADD PUSH1 0x20 DUP3 MUL DUP1 CALLDATASIZE DUP4 CALLDATACOPY DUP1 DUP3 ADD SWAP2 POP POP SWAP1 POP JUMPDEST POP PUSH1 0x1 SWAP1 DUP1 MLOAD SWAP1 PUSH1 0x20 ADD SWAP1 PUSH2 0x416 SWAP3 SWAP2 SWAP1 PUSH2 0x624 JUMP JUMPDEST POP PUSH1 0x0 CALLER PUSH20 0xFFFFFFFFFFFFFFFFFFFFFFFFFFFFFFFFFFFFFFFF AND SELFBALANCE PUSH1 0x40 MLOAD PUSH2 0x43D SWAP1 PUSH2 0x9C9 JUMP JUMPDEST PUSH1 0x0 PUSH1 0x40 MLOAD DUP1 DUP4 SUB DUP2 DUP6 DUP8 GAS CALL SWAP3 POP POP POP RETURNDATASIZE DUP1 PUSH1 0x0 DUP2 EQ PUSH2 0x47A JUMPI PUSH1 0x40 MLOAD SWAP2 POP PUSH1 0x1F NOT PUSH1 0x3F RETURNDATASIZE ADD AND DUP3 ADD PUSH1 0x40 MSTORE RETURNDATASIZE DUP3 MSTORE RETURNDATASIZE PUSH1 0x0 PUSH1 0x20 DUP5 ADD RETURNDATACOPY PUSH2 0x47F JUMP JUMPDEST PUSH1 0x60 SWAP2 POP JUMPDEST POP POP SWAP1 POP DUP1 PUSH2 0x4C3 JUMPI PUSH1 0x40 MLOAD PUSH32 0x8C379A000000000000000000000000000000000000000000000000000000000 DUP2 MSTORE PUSH1 0x4 ADD PUSH2 0x4BA SWAP1 PUSH2 0xA2A JUMP JUMPDEST PUSH1 0x40 MLOAD DUP1 SWAP2 SUB SWAP1 REVERT JUMPDEST POP JUMP JUMPDEST PUSH1 0x2 PUSH1 0x20 MSTORE DUP1 PUSH1 0x0 MSTORE PUSH1 0x40 PUSH1 0x0 KECCAK256 PUSH1 0x0 SWAP2 POP SWAP1 POP SLOAD DUP2 JUMP JUMPDEST PUSH32 0x0 DUP2 JUMP JUMPDEST PUSH1 0x1 DUP2 DUP2 SLOAD DUP2 LT PUSH2 0x512 JUMPI PUSH1 0x0 DUP1 REVERT JUMPDEST SWAP1 PUSH1 0x0 MSTORE PUSH1 0x20 PUSH1 0x0 KECCAK256 ADD PUSH1 0x0 SWAP2 POP SLOAD SWAP1 PUSH2 0x100 EXP SWAP1 DIV PUSH20 0xFFFFFFFFFFFFFFFFFFFFFFFFFFFFFFFFFFFFFFFF AND DUP2 JUMP JUMPDEST PUSH1 0x0 DUP1 PUSH2 0x54C PUSH2 0x57B JUMP JUMPDEST SWAP1 POP PUSH1 0x0 PUSH8 0xDE0B6B3A7640000 DUP5 DUP4 PUSH2 0x565 SWAP2 SWAP1 PUSH2 0xA4A JUMP JUMPDEST PUSH2 0x56F SWAP2 SWAP1 PUSH2 0xABB JUMP JUMPDEST SWAP1 POP DUP1 SWAP3 POP POP POP SWAP2 SWAP1 POP JUMP JUMPDEST PUSH1 0x0 DUP1 PUSH20 0x694AA1769357215DE4FAC081BF1F309ADC325306 SWAP1 POP PUSH1 0x0 DUP2 PUSH20 0xFFFFFFFFFFFFFFFFFFFFFFFFFFFFFFFFFFFFFFFF AND PUSH4 0xFEAF968C PUSH1 0x40 MLOAD DUP2 PUSH4 0xFFFFFFFF AND PUSH1 0xE0 SHL DUP2 MSTORE PUSH1 0x4 ADD PUSH1 0xA0 PUSH1 0x40 MLOAD DUP1 DUP4 SUB DUP2 DUP7 GAS STATICCALL ISZERO DUP1 ISZERO PUSH2 0x5E2 JUMPI RETURNDATASIZE PUSH1 0x0 DUP1 RETURNDATACOPY RETURNDATASIZE PUSH1 0x0 REVERT JUMPDEST POP POP POP POP PUSH1 0x40 MLOAD RETURNDATASIZE PUSH1 0x1F NOT PUSH1 0x1F DUP3 ADD AND DUP3 ADD DUP1 PUSH1 0x40 MSTORE POP DUP2 ADD SWAP1 PUSH2 0x606 SWAP2 SWAP1 PUSH2 0xB79 JUMP JUMPDEST POP POP POP SWAP2 POP POP PUSH5 0x2540BE400 DUP2 PUSH2 0x61D SWAP2 SWAP1 PUSH2 0xBF4 JUMP JUMPDEST SWAP3 POP POP POP SWAP1 JUMP JUMPDEST DUP3 DUP1 SLOAD DUP3 DUP3 SSTORE SWAP1 PUSH1 0x0 MSTORE PUSH1 0x20 PUSH1 0x0 KECCAK256 SWAP1 DUP2 ADD SWAP3 DUP3 ISZERO PUSH2 0x69D JUMPI SWAP2 PUSH1 0x20 MUL DUP3 ADD JUMPDEST DUP3 DUP2 GT ISZERO PUSH2 0x69C JUMPI DUP3 MLOAD DUP3 PUSH1 0x0 PUSH2 0x100 EXP DUP2 SLOAD DUP2 PUSH20 0xFFFFFFFFFFFFFFFFFFFFFFFFFFFFFFFFFFFFFFFF MUL NOT AND SWAP1 DUP4 PUSH20 0xFFFFFFFFFFFFFFFFFFFFFFFFFFFFFFFFFFFFFFFF AND MUL OR SWAP1 SSTORE POP SWAP2 PUSH1 0x20 ADD SWAP2 SWAP1 PUSH1 0x1 ADD SWAP1 PUSH2 0x644 JUMP JUMPDEST JUMPDEST POP SWAP1 POP PUSH2 0x6AA SWAP2 SWAP1 PUSH2 0x6AE JUMP JUMPDEST POP SWAP1 JUMP JUMPDEST JUMPDEST DUP1 DUP3 GT ISZERO PUSH2 0x6C7 JUMPI PUSH1 0x0 DUP2 PUSH1 0x0 SWAP1 SSTORE POP PUSH1 0x1 ADD PUSH2 0x6AF JUMP JUMPDEST POP SWAP1 JUMP JUMPDEST PUSH1 0x0 DUP2 SWAP1 POP SWAP2 SWAP1 POP JUMP JUMPDEST PUSH2 0x6DE DUP2 PUSH2 0x6CB JUMP JUMPDEST DUP3 MSTORE POP POP JUMP JUMPDEST PUSH1 0x0 PUSH1 0x20 DUP3 ADD SWAP1 POP PUSH2 0x6F9 PUSH1 0x0 DUP4 ADD DUP5 PUSH2 0x6D5 JUMP JUMPDEST SWAP3 SWAP2 POP POP JUMP JUMPDEST PUSH1 0x0 DUP1 REVERT JUMPDEST PUSH1 0x0 PUSH20 0xFFFFFFFFFFFFFFFFFFFFFFFFFFFFFFFFFFFFFFFF DUP3 AND SWAP1 POP SWAP2 SWAP1 POP JUMP JUMPDEST PUSH1 0x0 PUSH2 0x72F DUP3 PUSH2 0x704 JUMP JUMPDEST SWAP1 POP SWAP2 SWAP1 POP JUMP JUMPDEST PUSH2 0x73F DUP2 PUSH2 0x724 JUMP JUMPDEST DUP2 EQ PUSH2 0x74A JUMPI PUSH1 0x0 DUP1 REVERT JUMPDEST POP JUMP JUMPDEST PUSH1 0x0 DUP2 CALLDATALOAD SWAP1 POP PUSH2 0x75C DUP2 PUSH2 0x736 JUMP JUMPDEST SWAP3 SWAP2 POP POP JUMP JUMPDEST PUSH1 0x0 PUSH1 0x20 DUP3 DUP5 SUB SLT ISZERO PUSH2 0x778 JUMPI PUSH2 0x777 PUSH2 0x6FF JUMP JUMPDEST JUMPDEST PUSH1 0x0 PUSH2 0x786 DUP5 DUP3 DUP6 ADD PUSH2 0x74D JUMP JUMPDEST SWAP2 POP POP SWAP3 SWAP2 POP POP JUMP JUMPDEST PUSH2 0x798 DUP2 PUSH2 0x724 JUMP JUMPDEST DUP3 MSTORE POP POP JUMP JUMPDEST PUSH1 0x0 PUSH1 0x20 DUP3 ADD SWAP1 POP PUSH2 0x7B3 PUSH1 0x0 DUP4 ADD DUP5 PUSH2 0x78F JUMP JUMPDEST SWAP3 SWAP2 POP POP JUMP JUMPDEST PUSH2 0x7C2 DUP2 PUSH2 0x6CB JUMP JUMPDEST DUP2 EQ PUSH2 0x7CD JUMPI PUSH1 0x0 DUP1 REVERT JUMPDEST POP JUMP JUMPDEST PUSH1 0x0 DUP2 CALLDATALOAD SWAP1 POP PUSH2 0x7DF DUP2 PUSH2 0x7B9 JUMP JUMPDEST SWAP3 SWAP2 POP POP JUMP JUMPDEST PUSH1 0x0 PUSH1 0x20 DUP3 DUP5 SUB SLT ISZERO PUSH2 0x7FB JUMPI PUSH2 0x7FA PUSH2 0x6FF JUMP JUMPDEST JUMPDEST PUSH1 0x0 PUSH2 0x809 DUP5 DUP3 DUP6 ADD PUSH2 0x7D0 JUMP JUMPDEST SWAP2 POP POP SWAP3 SWAP2 POP POP JUMP JUMPDEST PUSH1 0x0 DUP3 DUP3 MSTORE PUSH1 0x20 DUP3 ADD SWAP1 POP SWAP3 SWAP2 POP POP JUMP JUMPDEST PUSH32 0x4469646E27742073656E7420656E6F7567682045544800000000000000000000 PUSH1 0x0 DUP3 ADD MSTORE POP JUMP JUMPDEST PUSH1 0x0 PUSH2 0x859 PUSH1 0x16 DUP4 PUSH2 0x812 JUMP JUMPDEST SWAP2 POP PUSH2 0x864 DUP3 PUSH2 0x823 JUMP JUMPDEST PUSH1 0x20 DUP3 ADD SWAP1 POP SWAP2 SWAP1 POP JUMP JUMPDEST PUSH1 0x0 PUSH1 0x20 DUP3 ADD SWAP1 POP DUP2 DUP2 SUB PUSH1 0x0 DUP4 ADD MSTORE PUSH2 0x888 DUP2 PUSH2 0x84C JUMP JUMPDEST SWAP1 POP SWAP2 SWAP1 POP JUMP JUMPDEST PUSH32 0x4E487B7100000000000000000000000000000000000000000000000000000000 PUSH1 0x0 MSTORE PUSH1 0x11 PUSH1 0x4 MSTORE PUSH1 0x24 PUSH1 0x0 REVERT JUMPDEST PUSH1 0x0 PUSH2 0x8C9 DUP3 PUSH2 0x6CB JUMP JUMPDEST SWAP2 POP PUSH2 0x8D4 DUP4 PUSH2 0x6CB JUMP JUMPDEST SWAP3 POP DUP3 DUP3 ADD SWAP1 POP DUP1 DUP3 GT ISZERO PUSH2 0x8EC JUMPI PUSH2 0x8EB PUSH2 0x88F JUMP JUMPDEST JUMPDEST SWAP3 SWAP2 POP POP JUMP JUMPDEST PUSH32 0x4E487B7100000000000000000000000000000000000000000000000000000000 PUSH1 0x0 MSTORE PUSH1 0x32 PUSH1 0x4 MSTORE PUSH1 0x24 PUSH1 0x0 REVERT JUMPDEST PUSH1 0x0 PUSH2 0x92C DUP3 PUSH2 0x6CB JUMP JUMPDEST SWAP2 POP PUSH32 0xFFFFFFFFFFFFFFFFFFFFFFFFFFFFFFFFFFFFFFFFFFFFFFFFFFFFFFFFFFFFFFFF DUP3 SUB PUSH2 0x95E JUMPI PUSH2 0x95D PUSH2 0x88F JUMP JUMPDEST JUMPDEST PUSH1 0x1 DUP3 ADD SWAP1 POP SWAP2 SWAP1 POP JUMP JUMPDEST PUSH32 0x4E487B7100000000000000000000000000000000000000000000000000000000 PUSH1 0x0 MSTORE PUSH1 0x41 PUSH1 0x4 MSTORE PUSH1 0x24 PUSH1 0x0 REVERT JUMPDEST PUSH1 0x0 DUP2 SWAP1 POP SWAP3 SWAP2 POP POP JUMP JUMPDEST POP JUMP JUMPDEST PUSH1 0x0 PUSH2 0x9B3 PUSH1 0x0 DUP4 PUSH2 0x998 JUMP JUMPDEST SWAP2 POP PUSH2 0x9BE DUP3 PUSH2 0x9A3 JUMP JUMPDEST PUSH1 0x0 DUP3 ADD SWAP1 POP SWAP2 SWAP1 POP JUMP JUMPDEST PUSH1 0x0 PUSH2 0x9D4 DUP3 PUSH2 0x9A6 JUMP JUMPDEST SWAP2 POP DUP2 SWAP1 POP SWAP2 SWAP1 POP JUMP JUMPDEST PUSH32 0x43616C6C204661696C6564000000000000000000000000000000000000000000 PUSH1 0x0 DUP3 ADD MSTORE POP JUMP JUMPDEST PUSH1 0x0 PUSH2 0xA14 PUSH1 0xB DUP4 PUSH2 0x812 JUMP JUMPDEST SWAP2 POP PUSH2 0xA1F DUP3 PUSH2 0x9DE JUMP JUMPDEST PUSH1 0x20 DUP3 ADD SWAP1 POP SWAP2 SWAP1 POP JUMP JUMPDEST PUSH1 0x0 PUSH1 0x20 DUP3 ADD SWAP1 POP DUP2 DUP2 SUB PUSH1 0x0 DUP4 ADD MSTORE PUSH2 0xA43 DUP2 PUSH2 0xA07 JUMP JUMPDEST SWAP1 POP SWAP2 SWAP1 POP JUMP JUMPDEST PUSH1 0x0 PUSH2 0xA55 DUP3 PUSH2 0x6CB JUMP JUMPDEST SWAP2 POP PUSH2 0xA60 DUP4 PUSH2 0x6CB JUMP JUMPDEST SWAP3 POP DUP3 DUP3 MUL PUSH2 0xA6E DUP2 PUSH2 0x6CB JUMP JUMPDEST SWAP2 POP DUP3 DUP3 DIV DUP5 EQ DUP4 ISZERO OR PUSH2 0xA85 JUMPI PUSH2 0xA84 PUSH2 0x88F JUMP JUMPDEST JUMPDEST POP SWAP3 SWAP2 POP POP JUMP JUMPDEST PUSH32 0x4E487B7100000000000000000000000000000000000000000000000000000000 PUSH1 0x0 MSTORE PUSH1 0x12 PUSH1 0x4 MSTORE PUSH1 0x24 PUSH1 0x0 REVERT JUMPDEST PUSH1 0x0 PUSH2 0xAC6 DUP3 PUSH2 0x6CB JUMP JUMPDEST SWAP2 POP PUSH2 0xAD1 DUP4 PUSH2 0x6CB JUMP JUMPDEST SWAP3 POP DUP3 PUSH2 0xAE1 JUMPI PUSH2 0xAE0 PUSH2 0xA8C JUMP JUMPDEST JUMPDEST DUP3 DUP3 DIV SWAP1 POP SWAP3 SWAP2 POP POP JUMP JUMPDEST PUSH1 0x0 PUSH10 0xFFFFFFFFFFFFFFFFFFFF DUP3 AND SWAP1 POP SWAP2 SWAP1 POP JUMP JUMPDEST PUSH2 0xB0B DUP2 PUSH2 0xAEC JUMP JUMPDEST DUP2 EQ PUSH2 0xB16 JUMPI PUSH1 0x0 DUP1 REVERT JUMPDEST POP JUMP JUMPDEST PUSH1 0x0 DUP2 MLOAD SWAP1 POP PUSH2 0xB28 DUP2 PUSH2 0xB02 JUMP JUMPDEST SWAP3 SWAP2 POP POP JUMP JUMPDEST PUSH1 0x0 DUP2 SWAP1 POP SWAP2 SWAP1 POP JUMP JUMPDEST PUSH2 0xB41 DUP2 PUSH2 0xB2E JUMP JUMPDEST DUP2 EQ PUSH2 0xB4C JUMPI PUSH1 0x0 DUP1 REVERT JUMPDEST POP JUMP JUMPDEST PUSH1 0x0 DUP2 MLOAD SWAP1 POP PUSH2 0xB5E DUP2 PUSH2 0xB38 JUMP JUMPDEST SWAP3 SWAP2 POP POP JUMP JUMPDEST PUSH1 0x0 DUP2 MLOAD SWAP1 POP PUSH2 0xB73 DUP2 PUSH2 0x7B9 JUMP JUMPDEST SWAP3 SWAP2 POP POP JUMP JUMPDEST PUSH1 0x0 DUP1 PUSH1 0x0 DUP1 PUSH1 0x0 PUSH1 0xA0 DUP7 DUP9 SUB SLT ISZERO PUSH2 0xB95 JUMPI PUSH2 0xB94 PUSH2 0x6FF JUMP JUMPDEST JUMPDEST PUSH1 0x0 PUSH2 0xBA3 DUP9 DUP3 DUP10 ADD PUSH2 0xB19 JUMP JUMPDEST SWAP6 POP POP PUSH1 0x20 PUSH2 0xBB4 DUP9 DUP3 DUP10 ADD PUSH2 0xB4F JUMP JUMPDEST SWAP5 POP POP PUSH1 0x40 PUSH2 0xBC5 DUP9 DUP3 DUP10 ADD PUSH2 0xB64 JUMP JUMPDEST SWAP4 POP POP PUSH1 0x60 PUSH2 0xBD6 DUP9 DUP3 DUP10 ADD PUSH2 0xB64 JUMP JUMPDEST SWAP3 POP POP PUSH1 0x80 PUSH2 0xBE7 DUP9 DUP3 DUP10 ADD PUSH2 0xB19 JUMP JUMPDEST SWAP2 POP POP SWAP3 SWAP6 POP SWAP3 SWAP6 SWAP1 SWAP4 POP JUMP JUMPDEST PUSH1 0x0 PUSH2 0xBFF DUP3 PUSH2 0xB2E JUMP JUMPDEST SWAP2 POP PUSH2 0xC0A DUP4 PUSH2 0xB2E JUMP JUMPDEST SWAP3 POP DUP3 DUP3 MUL PUSH2 0xC18 DUP2 PUSH2 0xB2E JUMP JUMPDEST SWAP2 POP PUSH32 0x8000000000000000000000000000000000000000000000000000000000000000 DUP5 EQ PUSH1 0x0 DUP5 SLT AND ISZERO PUSH2 0xC50 JUMPI PUSH2 0xC4F PUSH2 0x88F JUMP JUMPDEST JUMPDEST DUP3 DUP3 SDIV DUP5 EQ DUP4 ISZERO OR PUSH2 0xC65 JUMPI PUSH2 0xC64 PUSH2 0x88F JUMP JUMPDEST JUMPDEST POP SWAP3 SWAP2 POP POP JUMP INVALID LOG2 PUSH5 0x6970667358 0x22 SLT KECCAK256 0x5F MSTORE8 0xE8 0x1F STOP 0xF7 GASPRICE SWAP12 DIV 0xB0 0x5E DUP2 PUSH32 0x973E63B184BA5B0407DFCF86B2F884A084D1BA64736F6C634300081300330000 "
				},
				"gasEstimates": {
					"creation": {
						"codeDepositCost": "646800",
						"executionCost": "infinite",
						"totalCost": "infinite"
					},
					"external": {
						"": "infinite",
						"MINIMUN_USD()": "307",
						"addressToAmountFunded(address)": "2836",
						"fund()": "infinite",
						"funders(uint256)": "5044",
						"i_owner()": "infinite",
						"withdraw()": "infinite"
					}
				},
				"methodIdentifiers": {
					"MINIMUN_USD()": "2100f479",
					"addressToAmountFunded(address)": "3e47d6f3",
					"fund()": "b60d4288",
					"funders(uint256)": "dc0d3dff",
					"i_owner()": "dba6335f",
					"withdraw()": "3ccfd60b"
				}
			},
			"storageLayout": {
				"storage": [
					{
						"astId": 59,
						"contract": "FundMe.sol:FundMe",
						"label": "dataFeed",
						"offset": 0,
						"slot": "0",
						"type": "t_contract(AggregatorV3Interface)45"
					},
					{
						"astId": 65,
						"contract": "FundMe.sol:FundMe",
						"label": "funders",
						"offset": 0,
						"slot": "1",
						"type": "t_array(t_address)dyn_storage"
					},
					{
						"astId": 69,
						"contract": "FundMe.sol:FundMe",
						"label": "addressToAmountFunded",
						"offset": 0,
						"slot": "2",
						"type": "t_mapping(t_address,t_uint256)"
					}
				],
				"types": {
					"t_address": {
						"encoding": "inplace",
						"label": "address",
						"numberOfBytes": "20"
					},
					"t_array(t_address)dyn_storage": {
						"base": "t_address",
						"encoding": "dynamic_array",
						"label": "address[]",
						"numberOfBytes": "32"
					},
					"t_contract(AggregatorV3Interface)45": {
						"encoding": "inplace",
						"label": "contract AggregatorV3Interface",
						"numberOfBytes": "20"
					},
					"t_mapping(t_address,t_uint256)": {
						"encoding": "mapping",
						"key": "t_address",
						"label": "mapping(address => uint256)",
						"numberOfBytes": "32",
						"value": "t_uint256"
					},
					"t_uint256": {
						"encoding": "inplace",
						"label": "uint256",
						"numberOfBytes": "32"
					}
				}
			},
			"userdoc": {
				"kind": "user",
				"methods": {},
				"version": 1
			}
		}
	}
}